{
  "contractName": "coinCore",
  "abi": [
    {
      "constant": true,
      "inputs": [],
      "name": "name",
      "outputs": [
        {
          "name": "",
          "type": "string"
        }
      ],
      "payable": false,
      "stateMutability": "pure",
      "type": "function"
    },
    {
      "constant": false,
      "inputs": [
        {
          "name": "_coinID",
          "type": "uint256"
        },
        {
          "name": "_to",
          "type": "address"
        },
        {
          "name": "_data",
          "type": "bytes32"
        }
      ],
      "name": "giftLove",
      "outputs": [
        {
          "name": "",
          "type": "bool"
        }
      ],
      "payable": false,
      "stateMutability": "nonpayable",
      "type": "function"
    },
    {
      "constant": true,
      "inputs": [],
      "name": "redeemCount",
      "outputs": [
        {
          "name": "",
          "type": "uint256"
        }
      ],
      "payable": false,
      "stateMutability": "view",
      "type": "function"
    },
    {
      "constant": false,
      "inputs": [],
      "name": "createLove",
      "outputs": [
        {
          "name": "",
          "type": "bool"
        }
      ],
      "payable": true,
      "stateMutability": "payable",
      "type": "function"
    },
    {
      "constant": true,
      "inputs": [],
      "name": "totalSupply",
      "outputs": [
        {
          "name": "",
          "type": "uint256"
        }
      ],
      "payable": false,
      "stateMutability": "view",
      "type": "function"
    },
    {
      "constant": true,
      "inputs": [
        {
          "name": "_coinID",
          "type": "uint256"
        }
      ],
      "name": "showBid",
      "outputs": [
        {
          "name": "",
          "type": "uint256"
        },
        {
          "name": "",
          "type": "address"
        }
      ],
      "payable": false,
      "stateMutability": "view",
      "type": "function"
    },
    {
      "constant": true,
      "inputs": [],
      "name": "saleList",
      "outputs": [
        {
          "name": "",
          "type": "uint256[]"
        },
        {
          "name": "",
          "type": "address[]"
        },
        {
          "name": "",
          "type": "uint256[]"
        }
      ],
      "payable": false,
      "stateMutability": "view",
      "type": "function"
    },
    {
      "constant": false,
      "inputs": [
        {
          "name": "_coinID",
          "type": "uint256"
        }
      ],
      "name": "postSale",
      "outputs": [
        {
          "name": "",
          "type": "bool"
        }
      ],
      "payable": true,
      "stateMutability": "payable",
      "type": "function"
    },
    {
      "constant": false,
      "inputs": [
        {
          "name": "_coinID",
          "type": "uint256"
        },
        {
          "name": "_amount",
          "type": "uint256"
        }
      ],
      "name": "readytoSell",
      "outputs": [
        {
          "name": "",
          "type": "bool"
        }
      ],
      "payable": false,
      "stateMutability": "nonpayable",
      "type": "function"
    },
    {
      "constant": true,
      "inputs": [],
      "name": "listLove",
      "outputs": [
        {
          "name": "",
          "type": "uint256[]"
        },
        {
          "name": "",
          "type": "address[]"
        }
      ],
      "payable": false,
      "stateMutability": "view",
      "type": "function"
    },
    {
      "constant": false,
      "inputs": [
        {
          "name": "_coinID",
          "type": "uint256"
        }
      ],
      "name": "approveBid",
      "outputs": [
        {
          "name": "",
          "type": "bool"
        }
      ],
      "payable": false,
      "stateMutability": "nonpayable",
      "type": "function"
    },
    {
      "constant": true,
      "inputs": [],
      "name": "RATE",
      "outputs": [
        {
          "name": "",
          "type": "uint256"
        }
      ],
      "payable": false,
      "stateMutability": "view",
      "type": "function"
    },
    {
      "constant": true,
      "inputs": [
        {
          "name": "_owner",
          "type": "address"
        }
      ],
      "name": "balanceOf",
      "outputs": [
        {
          "name": "",
          "type": "uint256"
        }
      ],
      "payable": false,
      "stateMutability": "view",
      "type": "function"
    },
    {
      "constant": true,
      "inputs": [],
      "name": "totalBids",
      "outputs": [
        {
          "name": "",
          "type": "uint256"
        }
      ],
      "payable": false,
      "stateMutability": "view",
      "type": "function"
    },
    {
      "constant": true,
      "inputs": [],
      "name": "owner",
      "outputs": [
        {
          "name": "",
          "type": "address"
        }
      ],
      "payable": false,
      "stateMutability": "view",
      "type": "function"
    },
    {
      "constant": true,
      "inputs": [],
      "name": "symbol",
      "outputs": [
        {
          "name": "",
          "type": "string"
        }
      ],
      "payable": false,
      "stateMutability": "pure",
      "type": "function"
    },
    {
      "constant": true,
      "inputs": [],
      "name": "isSoldout",
      "outputs": [
        {
          "name": "",
          "type": "bool"
        }
      ],
      "payable": false,
      "stateMutability": "view",
      "type": "function"
    },
    {
      "constant": true,
      "inputs": [],
      "name": "saleCount",
      "outputs": [
        {
          "name": "",
          "type": "uint256"
        }
      ],
      "payable": false,
      "stateMutability": "view",
      "type": "function"
    },
    {
      "constant": true,
      "inputs": [],
      "name": "NAME",
      "outputs": [
        {
          "name": "",
          "type": "string"
        }
      ],
      "payable": false,
      "stateMutability": "view",
      "type": "function"
    },
    {
      "constant": false,
      "inputs": [
        {
          "name": "_coinID",
          "type": "uint256"
        }
      ],
      "name": "cancelSale",
      "outputs": [
        {
          "name": "",
          "type": "bool"
        }
      ],
      "payable": false,
      "stateMutability": "nonpayable",
      "type": "function"
    },
    {
      "constant": false,
      "inputs": [
        {
          "name": "_coinID",
          "type": "uint256"
        }
      ],
      "name": "claimLove",
      "outputs": [
        {
          "name": "",
          "type": "bool"
        }
      ],
      "payable": true,
      "stateMutability": "payable",
      "type": "function"
    },
    {
      "constant": true,
      "inputs": [
        {
          "name": "_coinID",
          "type": "uint256"
        }
      ],
      "name": "getLoveinfo",
      "outputs": [
        {
          "name": "_owner",
          "type": "address"
        },
        {
          "name": "_data",
          "type": "bytes32"
        }
      ],
      "payable": false,
      "stateMutability": "view",
      "type": "function"
    },
    {
      "constant": false,
      "inputs": [
        {
          "name": "_coinID",
          "type": "uint256"
        },
        {
          "name": "_amount",
          "type": "uint256"
        }
      ],
      "name": "bidcoin",
      "outputs": [
        {
          "name": "",
          "type": "bool"
        }
      ],
      "payable": false,
      "stateMutability": "nonpayable",
      "type": "function"
    },
    {
      "constant": true,
      "inputs": [],
      "name": "lovesbyOwner",
      "outputs": [
        {
          "name": "",
          "type": "uint256[]"
        }
      ],
      "payable": false,
      "stateMutability": "view",
      "type": "function"
    },
    {
      "constant": false,
      "inputs": [
        {
          "name": "_owner",
          "type": "address"
        }
      ],
      "name": "allowRedeem",
      "outputs": [
        {
          "name": "",
          "type": "bool"
        }
      ],
      "payable": false,
      "stateMutability": "nonpayable",
      "type": "function"
    },
    {
      "constant": true,
      "inputs": [],
      "name": "SYMBOL",
      "outputs": [
        {
          "name": "",
          "type": "string"
        }
      ],
      "payable": false,
      "stateMutability": "view",
      "type": "function"
    },
    {
      "constant": true,
      "inputs": [],
      "name": "totalredeemcount",
      "outputs": [
        {
          "name": "",
          "type": "uint256"
        }
      ],
      "payable": false,
      "stateMutability": "view",
      "type": "function"
    },
    {
      "anonymous": false,
      "inputs": [
        {
          "indexed": true,
          "name": "_owner",
          "type": "address"
        },
        {
          "indexed": false,
          "name": "_to",
          "type": "address"
        },
        {
          "indexed": false,
          "name": "_coinID",
          "type": "uint256"
        }
      ],
      "name": "LoveTransfer",
      "type": "event"
    },
    {
      "anonymous": false,
      "inputs": [
        {
          "indexed": true,
          "name": "_owner",
          "type": "address"
        },
        {
          "indexed": false,
          "name": "_coinID",
          "type": "uint256"
        }
      ],
      "name": "CreateLove",
      "type": "event"
    },
    {
      "anonymous": false,
      "inputs": [
        {
          "indexed": true,
          "name": "_from",
          "type": "address"
        },
        {
          "indexed": false,
          "name": "_bidID",
          "type": "uint256"
        },
        {
          "indexed": false,
          "name": "_coinID",
          "type": "uint256"
        },
        {
          "indexed": false,
          "name": "_bidAmount",
          "type": "uint256"
        }
      ],
      "name": "Bidding",
      "type": "event"
    },
    {
      "anonymous": false,
      "inputs": [
        {
          "indexed": true,
          "name": "_from",
          "type": "address"
        },
        {
          "indexed": false,
          "name": "_bidID",
          "type": "uint256"
        },
        {
          "indexed": false,
          "name": "_coinID",
          "type": "uint256"
        },
        {
          "indexed": false,
          "name": "_bidAmount",
          "type": "uint256"
        }
      ],
      "name": "ApproveBid",
      "type": "event"
    },
    {
      "anonymous": false,
      "inputs": [
        {
          "indexed": true,
          "name": "_from",
          "type": "address"
        },
        {
          "indexed": false,
          "name": "_to",
          "type": "address"
        },
        {
          "indexed": false,
          "name": "_bidID",
          "type": "uint256"
        },
        {
          "indexed": false,
          "name": "_coinID",
          "type": "uint256"
        },
        {
          "indexed": false,
          "name": "_bidAmount",
          "type": "uint256"
        }
      ],
      "name": "Claim",
      "type": "event"
    }
  ],
  "bytecode": "0x60606040526000600155600060025560006003556000600455336000806101000a81548173ffffffffffffffffffffffffffffffffffffffff021916908373ffffffffffffffffffffffffffffffffffffffff160217905550612653806100676000396000f30060606040526004361061015f576000357c0100000000000000000000000000000000000000000000000000000000900463ffffffff16806306fdde03146101645780630d02f457146101f2578063126717cd1461025957806317817ee71461028257806318160ddd146102a45780632b50ef0e146102cd57806337e3e1d314610337578063385608711461043157806348b23d6a146104615780635f659172146104a5578063613e867e14610557578063664e97041461059257806370a08231146105bb5780638b034136146106085780638da5cb5b1461063157806395d89b41146106865780639b66b96e14610714578063a1e89aec14610741578063a3f4df7e1461076a578063bd94b005146107f8578063bf16ec2714610833578063c609d9a214610863578063e185f7f3146108d5578063e20a3b9814610919578063f019849a14610983578063f76f8d78146109d4578063feb75f8914610a62575b600080fd5b341561016f57600080fd5b610177610a8b565b6040518080602001828103825283818151815260200191508051906020019080838360005b838110156101b757808201518184015260208101905061019c565b50505050905090810190601f1680156101e45780820380516001836020036101000a031916815260200191505b509250505060405180910390f35b34156101fd57600080fd5b61023f600480803590602001909190803573ffffffffffffffffffffffffffffffffffffffff1690602001909190803560001916906020019091905050610ace565b604051808215151515815260200191505060405180910390f35b341561026457600080fd5b61026c610bb0565b6040518082815260200191505060405180910390f35b61028a610bb6565b604051808215151515815260200191505060405180910390f35b34156102af57600080fd5b6102b7610f7c565b6040518082815260200191505060405180910390f35b34156102d857600080fd5b6102ee6004808035906020019091905050610f86565b604051808381526020018273ffffffffffffffffffffffffffffffffffffffff1673ffffffffffffffffffffffffffffffffffffffff1681526020019250505060405180910390f35b341561034257600080fd5b61034a610ffd565b60405180806020018060200180602001848103845287818151815260200191508051906020019060200280838360005b8381101561039557808201518184015260208101905061037a565b50505050905001848103835286818151815260200191508051906020019060200280838360005b838110156103d75780820151818401526020810190506103bc565b50505050905001848103825285818151815260200191508051906020019060200280838360005b838110156104195780820151818401526020810190506103fe565b50505050905001965050505050505060405180910390f35b610447600480803590602001909190505061125f565b604051808215151515815260200191505060405180910390f35b341561046c57600080fd5b61048b60048080359060200190919080359060200190919050506114d3565b604051808215151515815260200191505060405180910390f35b34156104b057600080fd5b6104b86115c4565b604051808060200180602001838103835285818151815260200191508051906020019060200280838360005b838110156104ff5780820151818401526020810190506104e4565b50505050905001838103825284818151815260200191508051906020019060200280838360005b83811015610541578082015181840152602081019050610526565b5050505090500194505050505060405180910390f35b341561056257600080fd5b61057860048080359060200190919050506117e5565b604051808215151515815260200191505060405180910390f35b341561059d57600080fd5b6105a56118cb565b6040518082815260200191505060405180910390f35b34156105c657600080fd5b6105f2600480803573ffffffffffffffffffffffffffffffffffffffff169060200190919050506118d6565b6040518082815260200191505060405180910390f35b341561061357600080fd5b61061b61191f565b6040518082815260200191505060405180910390f35b341561063c57600080fd5b610644611925565b604051808273ffffffffffffffffffffffffffffffffffffffff1673ffffffffffffffffffffffffffffffffffffffff16815260200191505060405180910390f35b341561069157600080fd5b61069961194a565b6040518080602001828103825283818151815260200191508051906020019080838360005b838110156106d95780820151818401526020810190506106be565b50505050905090810190601f1680156107065780820380516001836020036101000a031916815260200191505b509250505060405180910390f35b341561071f57600080fd5b61072761198d565b604051808215151515815260200191505060405180910390f35b341561074c57600080fd5b61075461199b565b6040518082815260200191505060405180910390f35b341561077557600080fd5b61077d6119a1565b6040518080602001828103825283818151815260200191508051906020019080838360005b838110156107bd5780820151818401526020810190506107a2565b50505050905090810190601f1680156107ea5780820380516001836020036101000a031916815260200191505b509250505060405180910390f35b341561080357600080fd5b61081960048080359060200190919050506119da565b604051808215151515815260200191505060405180910390f35b6108496004808035906020019091905050611b05565b604051808215151515815260200191505060405180910390f35b341561086e57600080fd5b6108846004808035906020019091905050611e23565b604051808373ffffffffffffffffffffffffffffffffffffffff1673ffffffffffffffffffffffffffffffffffffffff16815260200182600019166000191681526020019250505060405180910390f35b34156108e057600080fd5b6108ff6004808035906020019091908035906020019091905050611e9a565b604051808215151515815260200191505060405180910390f35b341561092457600080fd5b61092c612019565b6040518080602001828103825283818151815260200191508051906020019060200280838360005b8381101561096f578082015181840152602081019050610954565b505050509050019250505060405180910390f35b341561098e57600080fd5b6109ba600480803573ffffffffffffffffffffffffffffffffffffffff16906020019091905050612160565b604051808215151515815260200191505060405180910390f35b34156109df57600080fd5b6109e76122f8565b6040518080602001828103825283818151815260200191508051906020019080838360005b83811015610a27578082015181840152602081019050610a0c565b50505050905090810190601f168015610a545780820380516001836020036101000a031916815260200191505b509250505060405180910390f35b3415610a6d57600080fd5b610a75612331565b6040518082815260200191505060405180910390f35b610a9361255f565b6040805190810160405280600c81526020017f4c6f7665636f696e636f72650000000000000000000000000000000000000000815250905090565b6000808373ffffffffffffffffffffffffffffffffffffffff1614158015610b5757503373ffffffffffffffffffffffffffffffffffffffff166007600086815260200190815260200160002060020160009054906101000a900473ffffffffffffffffffffffffffffffffffffffff1673ffffffffffffffffffffffffffffffffffffffff16145b8015610b635750600084115b8015610b7157508360015410155b1515610b7c57600080fd5b610b86838561233b565b81600760008681526020019081526020016000206003018160001916905550600190509392505050565b60035481565b6000610bc0612573565b6632cdc63449c000341480610c8b57506000809054906101000a900473ffffffffffffffffffffffffffffffffffffffff1673ffffffffffffffffffffffffffffffffffffffff163373ffffffffffffffffffffffffffffffffffffffff161480610c7b575060011515600860003373ffffffffffffffffffffffffffffffffffffffff1673ffffffffffffffffffffffffffffffffffffffff16815260200190815260200160002060009054906101000a900460ff161515145b8015610c8a5750611388600354105b5b8015610ca2575060001515610c9e61198d565b1515145b1515610cad57600080fd5b60016000815480929190600101919050555060015481600001818152505033816040019073ffffffffffffffffffffffffffffffffffffffff16908173ffffffffffffffffffffffffffffffffffffffff168152505080600760006001548152602001908152602001600020600082015181600001556020820151816001015560408201518160020160006101000a81548173ffffffffffffffffffffffffffffffffffffffff021916908373ffffffffffffffffffffffffffffffffffffffff1602179055506060820151816003019060001916905560808201518160040160006101000a81548160ff0219169083151502179055509050506001600560003373ffffffffffffffffffffffffffffffffffffffff1673ffffffffffffffffffffffffffffffffffffffff168152602001908152602001600020600082825401925050819055506000341415610ec35760036000815480929190600101919050555060011515600860003373ffffffffffffffffffffffffffffffffffffffff1673ffffffffffffffffffffffffffffffffffffffff16815260200190815260200160002060009054906101000a900460ff1615151415610ec2576000600860003373ffffffffffffffffffffffffffffffffffffffff1673ffffffffffffffffffffffffffffffffffffffff16815260200190815260200160002060006101000a81548160ff0219169083151502179055505b5b6000809054906101000a900473ffffffffffffffffffffffffffffffffffffffff1673ffffffffffffffffffffffffffffffffffffffff166108fc349081150290604051600060405180830381858888f193505050501515610f2457600080fd5b3373ffffffffffffffffffffffffffffffffffffffff167f231af552c9f50ae1dc17ddd58c0784de0c960d470660314678be69593587bc756001546040518082815260200191505060405180910390a2600191505090565b6000600154905090565b600080600083118015610f9b57508260015410155b1515610fa657600080fd5b60066000848152602001908152602001600020600101546006600085815260200190815260200160002060020160009054906101000a900473ffffffffffffffffffffffffffffffffffffffff1691509150915091565b6110056125be565b61100d6125d2565b6110156125be565b6000806110206125be565b6110286125d2565b6110306125be565b600061103a612573565b60018054019650600095506004546040518059106110555750595b908082528060200260200182016040525094506004546040518059106110785750595b9080825280602002602001820160405250935060045460405180591061109b5750595b90808252806020026020018201604052509250600191505b8682101561124a57600115156007600084815260200190815260200160002060040160009054906101000a900460ff161515141561123d576007600083815260200190815260200160002060a0604051908101604052908160008201548152602001600182015481526020016002820160009054906101000a900473ffffffffffffffffffffffffffffffffffffffff1673ffffffffffffffffffffffffffffffffffffffff1673ffffffffffffffffffffffffffffffffffffffff1681526020016003820154600019166000191681526020016004820160009054906101000a900460ff1615151515815250509050806000015185878151811015156111b657fe5b9060200190602002018181525050806040015184878151811015156111d757fe5b9060200190602002019073ffffffffffffffffffffffffffffffffffffffff16908173ffffffffffffffffffffffffffffffffffffffff16815250508060200151838781518110151561122657fe5b906020019060200201818152505085806001019650505b81806001019250506110b3565b84848499509950995050505050505050909192565b600080600115156007600085815260200190815260200160002060040160009054906101000a900460ff1615151480156112ae5750600760008481526020019081526020016000206001015434145b15156112b957600080fd5b6007600084815260200190815260200160002060020160009054906101000a900473ffffffffffffffffffffffffffffffffffffffff169050336007600085815260200190815260200160002060020160006101000a81548173ffffffffffffffffffffffffffffffffffffffff021916908373ffffffffffffffffffffffffffffffffffffffff1602179055506001600560008373ffffffffffffffffffffffffffffffffffffffff1673ffffffffffffffffffffffffffffffffffffffff168152602001908152602001600020600082825403925050819055506001600560003373ffffffffffffffffffffffffffffffffffffffff1673ffffffffffffffffffffffffffffffffffffffff168152602001908152602001600020600082825401925050819055506632cdc63449c000600760008581526020019081526020016000206001018190555060006007600085815260200190815260200160002060040160006101000a81548160ff021916908315150217905550600460008154809291906001900391905055508073ffffffffffffffffffffffffffffffffffffffff167f8769eccac688ad377ef9ae470a1fe69698f6aa24b14f80fd973d545dc6d008403385604051808373ffffffffffffffffffffffffffffffffffffffff1673ffffffffffffffffffffffffffffffffffffffff1681526020018281526020019250505060405180910390a26001915050919050565b600080831180156114e657508260015410155b801561155357503373ffffffffffffffffffffffffffffffffffffffff166007600085815260200190815260200160002060020160009054906101000a900473ffffffffffffffffffffffffffffffffffffffff1673ffffffffffffffffffffffffffffffffffffffff16145b151561155e57600080fd5b60016007600085815260200190815260200160002060040160006101000a81548160ff0219169083151502179055508160076000858152602001908152602001600020600101819055506004600081548092919060010191905055506001905092915050565b6115cc6125be565b6115d46125d2565b60006115de6125be565b6115e66125d2565b60006115f0612573565b3373ffffffffffffffffffffffffffffffffffffffff166000809054906101000a900473ffffffffffffffffffffffffffffffffffffffff1673ffffffffffffffffffffffffffffffffffffffff1614151561164b57600080fd5b60018054019450846040518059106116605750595b90808252806020026020018201604052509350846040518059106116815750595b90808252806020026020018201604052509250600191505b848210156117d6576007600083815260200190815260200160002060a0604051908101604052908160008201548152602001600182015481526020016002820160009054906101000a900473ffffffffffffffffffffffffffffffffffffffff1673ffffffffffffffffffffffffffffffffffffffff1673ffffffffffffffffffffffffffffffffffffffff1681526020016003820154600019166000191681526020016004820160009054906101000a900460ff16151515158152505090508060000151848381518110151561176c57fe5b90602001906020020181815250508060400151838381518110151561178d57fe5b9060200190602002019073ffffffffffffffffffffffffffffffffffffffff16908173ffffffffffffffffffffffffffffffffffffffff16815250508180600101925050611699565b83839650965050505050509091565b600080821180156117f857508160015410155b801561186557503373ffffffffffffffffffffffffffffffffffffffff166007600084815260200190815260200160002060020160009054906101000a900473ffffffffffffffffffffffffffffffffffffffff1673ffffffffffffffffffffffffffffffffffffffff16145b801561188857506000600660008481526020019081526020016000206001015414155b151561189357600080fd5b60016006600084815260200190815260200160002060020160146101000a81548160ff02191690831515021790555060019050919050565b6632cdc63449c00081565b6000600560008373ffffffffffffffffffffffffffffffffffffffff1673ffffffffffffffffffffffffffffffffffffffff168152602001908152602001600020549050919050565b60025481565b6000809054906101000a900473ffffffffffffffffffffffffffffffffffffffff1681565b61195261255f565b6040805190810160405280600481526020017f4c4f564500000000000000000000000000000000000000000000000000000000815250905090565b600061c35060015414905090565b60045481565b6040805190810160405280600c81526020017f4c6f7665636f696e636f7265000000000000000000000000000000000000000081525081565b600080821180156119ed57508160015410155b8015611a5a57503373ffffffffffffffffffffffffffffffffffffffff166007600084815260200190815260200160002060020160009054906101000a900473ffffffffffffffffffffffffffffffffffffffff1673ffffffffffffffffffffffffffffffffffffffff16145b8015611a8d5750600115156007600084815260200190815260200160002060040160009054906101000a900460ff161515145b1515611a9857600080fd5b60006007600084815260200190815260200160002060040160006101000a81548160ff0219169083151502179055506632cdc63449c00060076000848152602001908152602001600020600101819055506004600081548092919060019003919050555060019050919050565b600080600660008481526020019081526020016000206001015434148015611b8e57503373ffffffffffffffffffffffffffffffffffffffff166006600085815260200190815260200160002060020160009054906101000a900473ffffffffffffffffffffffffffffffffffffffff1673ffffffffffffffffffffffffffffffffffffffff16145b8015611bc15750600115156006600085815260200190815260200160002060020160149054906101000a900460ff161515145b1515611bcc57600080fd5b6007600084815260200190815260200160002060020160009054906101000a900473ffffffffffffffffffffffffffffffffffffffff169050336007600085815260200190815260200160002060020160006101000a81548173ffffffffffffffffffffffffffffffffffffffff021916908373ffffffffffffffffffffffffffffffffffffffff1602179055506001600560008373ffffffffffffffffffffffffffffffffffffffff1673ffffffffffffffffffffffffffffffffffffffff168152602001908152602001600020600082825403925050819055506001600560003373ffffffffffffffffffffffffffffffffffffffff1673ffffffffffffffffffffffffffffffffffffffff168152602001908152602001600020600082825401925050819055506006600084815260200190815260200160002060008082016000905560018201600090556002820160006101000a81549073ffffffffffffffffffffffffffffffffffffffff02191690556002820160146101000a81549060ff021916905550508073ffffffffffffffffffffffffffffffffffffffff166108fc349081150290604051600060405180830381858888f193505050501515611d9757600080fd5b8073ffffffffffffffffffffffffffffffffffffffff167f8769eccac688ad377ef9ae470a1fe69698f6aa24b14f80fd973d545dc6d008403385604051808373ffffffffffffffffffffffffffffffffffffffff1673ffffffffffffffffffffffffffffffffffffffff1681526020018281526020019250505060405180910390a26001915050919050565b600080600083118015611e3857506001548311155b1515611e4357600080fd5b6007600084815260200190815260200160002060020160009054906101000a900473ffffffffffffffffffffffffffffffffffffffff16600760008581526020019081526020016000206003015491509150915091565b6000611ea46125e6565b600084118015611eb657508360015410155b8015611ec25750600083115b8015611ee4575060066000858152602001908152602001600020600101548310155b8015611f175750600015156006600086815260200190815260200160002060020160149054906101000a900460ff161515145b1515611f2257600080fd5b6002600081548092919060010191905055508381600001818152505033816040019073ffffffffffffffffffffffffffffffffffffffff16908173ffffffffffffffffffffffffffffffffffffffff1681525050828160200181815250508060066000868152602001908152602001600020600082015181600001556020820151816001015560408201518160020160006101000a81548173ffffffffffffffffffffffffffffffffffffffff021916908373ffffffffffffffffffffffffffffffffffffffff16021790555060608201518160020160146101000a81548160ff0219169083151502179055509050505092915050565b6120216125be565b6120296125be565b600080600560003373ffffffffffffffffffffffffffffffffffffffff1673ffffffffffffffffffffffffffffffffffffffff168152602001908152602001600020546040518059106120795750595b9080825280602002602001820160405250925060009150600190505b6001805401811015612157573373ffffffffffffffffffffffffffffffffffffffff166007600083815260200190815260200160002060020160009054906101000a900473ffffffffffffffffffffffffffffffffffffffff1673ffffffffffffffffffffffffffffffffffffffff16141561214a576007600082815260200190815260200160002060000154838360ff1681518110151561213357fe5b906020019060200201818152505081806001019250505b8080600101915050612095565b82935050505090565b60008060009054906101000a900473ffffffffffffffffffffffffffffffffffffffff1673ffffffffffffffffffffffffffffffffffffffff163373ffffffffffffffffffffffffffffffffffffffff161415156121bd57600080fd5b60008273ffffffffffffffffffffffffffffffffffffffff161415801561223057506000809054906101000a900473ffffffffffffffffffffffffffffffffffffffff1673ffffffffffffffffffffffffffffffffffffffff163373ffffffffffffffffffffffffffffffffffffffff16145b801561228c575060001515600860008473ffffffffffffffffffffffffffffffffffffffff1673ffffffffffffffffffffffffffffffffffffffff16815260200190815260200160002060009054906101000a900460ff161515145b151561229757600080fd5b6001600860008473ffffffffffffffffffffffffffffffffffffffff1673ffffffffffffffffffffffffffffffffffffffff16815260200190815260200160002060006101000a81548160ff02191690831515021790555060019050919050565b6040805190810160405280600481526020017f4c4f56450000000000000000000000000000000000000000000000000000000081525081565b6000600354905090565b60008273ffffffffffffffffffffffffffffffffffffffff16141580156123625750600081115b801561237057508060015410155b80156123dd57503373ffffffffffffffffffffffffffffffffffffffff166007600083815260200190815260200160002060020160009054906101000a900473ffffffffffffffffffffffffffffffffffffffff1673ffffffffffffffffffffffffffffffffffffffff16145b15156123e857600080fd5b816007600083815260200190815260200160002060020160006101000a81548173ffffffffffffffffffffffffffffffffffffffff021916908373ffffffffffffffffffffffffffffffffffffffff1602179055506001600560003373ffffffffffffffffffffffffffffffffffffffff1673ffffffffffffffffffffffffffffffffffffffff168152602001908152602001600020600082825403925050819055506001600560008473ffffffffffffffffffffffffffffffffffffffff1673ffffffffffffffffffffffffffffffffffffffff168152602001908152602001600020600082825401925050819055503373ffffffffffffffffffffffffffffffffffffffff167f8769eccac688ad377ef9ae470a1fe69698f6aa24b14f80fd973d545dc6d008408383604051808373ffffffffffffffffffffffffffffffffffffffff1673ffffffffffffffffffffffffffffffffffffffff1681526020018281526020019250505060405180910390a25050565b602060405190810160405280600081525090565b60a0604051908101604052806000815260200160008152602001600073ffffffffffffffffffffffffffffffffffffffff168152602001600080191681526020016000151581525090565b602060405190810160405280600081525090565b602060405190810160405280600081525090565b6080604051908101604052806000815260200160008152602001600073ffffffffffffffffffffffffffffffffffffffff16815260200160001515815250905600a165627a7a72305820b0b19e43b5c554b0db4df58105ac4d83552a6170e18aca3643b26590a63316b70029",
  "source": "pragma solidity ^0.4.2;\n\n\n/**\n * @title Ownable\n * @dev The Ownable contract has an owner address, and provides basic authorization control\n * functions, this simplifies the implementation of \"user permissions\".\n */\n\ncontract Ownable {\n\n\n\taddress public owner;\n\t\n\t/**\n     * @dev Throws if called by any account other than the owner.\n     */\n\n\tmodifier onlyOwner()  {\n\t\trequire(\n\t\t\tmsg.sender == owner\n\t\t\t);\n\t\t\t_;\n\t}\n\t\n    /**\n     * @dev The Ownable constructor sets the original `owner` of the contract to the sender\n     * account.\n     */\n\n\tfunction Ownable () public {\n\t\towner = msg.sender;\n\t}\n}\n\n/**\n * @title contract Lovecoincore.\n * @dev Lovecoincore is basically an ERC721 token.\n * @author Blockchain Expert.\n*/\ncontract coinCore is Ownable{\n        //@param NAME is defines the name of the token as ERC721 standared \n\t\tstring public constant NAME = \"Lovecoincore\";\n\t\t//@param SYMBOL defines the ERC721 standared symbol for token\n\t\tstring public constant SYMBOL = \"LOVE\";\n\t\t//@param RATE defines cost of 1 token in wei equals 0.0143 ETH.\n\t\tuint256 public constant RATE = 14300000000000000;\n        //@param totalSupply defines number of tokens created by the smartcontract yet\n\t\tuint256 public totalSupply = 0;\n\t\t//@param totalBids defines total number of bids created yet\n\t\tuint256 public totalBids = 0;\n\t\t//@param redeemCount defines total redeems are applied this count is limited to 5000. and the 5000 is \n\t\t//allowed to create for developers and owner allowed users\n\t\tuint256 public redeemCount = 0;\n\t\tuint256 public saleCount = 0;\n\n        /**\n         * @param totalOwned is the two dimensional mapping from the address to uint which stores\n         * the love coin balance curresponds coin owner\n         * @param bid is the mapping from BID structure to the uint which stores the highest price\n         * bid for each coin\n         * @param lovecoin is the mapping from uint to the Love structure which stores each love coin\n         */\n         \n        // @param totalOwned is used to store the number of coin owned by each account\n\t\tmapping (address => uint256) totalOwned;\n\t\t// @param bid is used to store Bids \n\t\tmapping (uint256 => Bid) bid;\n\t\t// @param lovecoin is used to store the Love coins\n\t\tmapping (uint256 => Love) lovecoin;\n\t\t// @param redeem stores the redeem status(true or false) for any account that get the permission to redeem coin\n\t\tmapping (address => bool) redeem;\n\t\t\n\t\t/**\n\t\t * @param Love is a structure consist of Coin id, Selling price of coin, address of coin owner,\n\t\t * data to be encoded in the coin, ststus of selling availability.\n\t \t */\n        \n        // @param Love is a structure which consist of coin attributes, Each Love coin is combined of these unique value\n        // each time creating a Love coin will generate an instance of this structure with the attributes\n        // This is the skeleton of the ERC721 standared token with unique Id and data without fungiability\n\t\tstruct Love {\n            \n            // @param coinID is the unique id. starts from 1 and end at 100000. this is the unique id to identify each of the love coin token\n            // coinID is uint256 type value \n\t\t\tuint256 coinID;\n\t\t\t// @param sellPrice defines the selling price of a generated coin\n\t\t\t// by default, this will be 0.0143 ETH (normal token cost), when the token sale in future, user can upadte this sellPrice\n\t\t\tuint256 sellPrice;\n\t\t\t// @param coinOwner is defines the owner of the particular coin. this should be a valid ethereum address.\n\t\t\t// this can't be set manually and this will automatically fetch from the wallet (Metmask like wallet)\n\t\t\taddress coinOwner;\n\t\t\t// @param data stores the data to encoded in the coin. this is the hexa decimal format of concatenated string of \n\t\t\t// the two Names that the user would like to add to the coin.\n\t\t\t// data should be read from the frontend as string and it will concatenated and pass to the function .\n\t\t\t// bytes32 data type automatically made the type coversion and it will generate a hexadecimal value of the string.\n\t\t\t// bytes32 used since it consume less storage space and EVM(Ethereum Virtual Machine) works with 32 bytes of data\n\t\t\t// so here EVM doesn't need coversion and directly process the 32 bytes of data. this will readuce tha gas limit and token creation cost\n\t\t\tbytes32 data;\n\t\t\t// @param sellAvailability store the status whether the coin has to sell or not.  sellAvailability is a bool type variable\n\t\t\t// it initially set to false and when the coin holder call readytoSell function this value become true.\n\t\t\tbool sellAvailability;\n\t\t\t\n\t\t}\n\t\t/**\n\t\t * @param Bid is a structure combined of Bidding data including Coin id, Bidding amount, address of bidder\n\t\t * status of bid ApprovalStatus\n\t\t * \n\t\t */\n\t\t\n\t\tstruct Bid {\n\t\t  \n\t\t    // @param coinID reference to the coin ID that going to bid. \n\t\t\tuint256 coinID;\n\t\t\t// @param bidAmount is uint256 type Bid variable to store the amount of ether for the bid.\n\t\t\tuint256 bidAmount;\n\t\t\t// @param bidBy is the address which stores the address of bidder.\n\t\t\taddress bidBy;\n\t\t\t// @param ApprovalStatus is the status of bid. toggle true and false for a coin when bid is created and claimed\n\t\t\tbool ApprovalStatus;\n\t\t}\n\t\t\n\t\t/**\n\t\t * @dev createLove is a payable function it accepts only 14300000000000000 wei(0.0143 ETH), and create a love coin in the \n\t\t * ownership of the sender\n\t\t * this function throws when the amount send to the contract is less or greater than 0.016 ETH\n\t\t * @dev isSoldout function ensure the availability of coin (ie: total production less than 1 lakh)\n\t\t * @dev the amount send to the function is the cost of the coin and this will transfer to the contract deployer\n\t\t * @dev once the correct amount paid and coin generated. then the amount of ether no more retrived.\n\t\t */\n\n\t\tfunction createLove () public payable returns(bool){\n\t\t    // function to generate a fresh lovecoin with a unique id  \t\t\n\t\t\trequire(\n\t\t\t    // RATE is the cost of coin\n\t\t\t\t(msg.value == RATE ||\n\t\t\t    // For the redeem purpose of 1000 coins we check whether the account holder has added to the redeem array\n\t\t\t\t((msg.sender == owner ||\n\t\t\t\tredeem[msg.sender] == true) &&\n\t\t\t\t// redeem count should be less than 10% of capital\n\t\t\t\tredeemCount < 5000)) && \n\t\t\t\t// check wether the coin is soldout or not\n\t\t\t\tisSoldout() == false\n\t\t\t\t);\n\t\t\t\t// Here we create a dummy Love structure called propose to temporarly add the coin data\n\t\t\t\t// and we will finally add the data into the structure array\n\t\t\t\tLove memory propose;\n\t\t\t\t//total supply should be increment befor the starting of the process since we take the total supply count as the \n\t\t\t\t// refernce for the coin id\n\t\t\t    totalSupply++;\n\t\t\t    propose.coinID = totalSupply;\n\t\t\t    //coin owner is set as the the user account using msg.sender\n\t\t\t    propose.coinOwner = msg.sender;\n\t\t\t    // the dummy is added to the original lovecoin data store\n\t\t\t    lovecoin[totalSupply] = propose;\n\t\t\t    // @param totalOwned is the balance of msg.sender this will increment finally\n\t\t\t    totalOwned[msg.sender] += 1;\n\t\t\t    // in case the value that passed is 0 which means that this transaction was a redeem so the redeem count will icremented by 1\n\t\t\t    // for the future reference\n\t\t\t    if(msg.value==0)    {\n\t\t\t        redeemCount++;\n\t\t\t    // the redeem status of the msg.sender is set as false to avoid dual spending of redeem\n\t\t\t        if(redeem[msg.sender] == true) {\n\t\t\t            redeem[msg.sender]=false;\n\t\t\t        }\n\t\t\t    }\n\t\t\t \t\t\t    // after the completion of coin ctreation the the amount of ether that provided by the msg.sender as the cost of the coin\n\t\t\t    // will send to the Lovecoin Smartcontract deployer account\n\t\t\towner.transfer(msg.value);   \n            // Event CreateLove is called to add the creation details to the block which includes the sender address and the coin Id\n\t\t\tCreateLove(msg.sender, totalSupply);\n\t\t\treturn true;\n\t\t\t\t\n\t\t}\n\t\t\n\n        /**\n         * @dev getLoveinfo is a constant function will return the stored informations of a coin \n         * it will accept valid coin id, throws when invalid coin id is entered\n         */\n\t\tfunction getLoveinfo(uint256 _coinID) external view returns(address _owner,bytes32 _data) {\n\t\t// This function will throws if the coin Id is invalid\n\t\t\trequire(\n\t\t\t\t_coinID > 0 &&\n\t\t\t\t_coinID <= totalSupply \n\t\t\t\t);\n        // getLoveinfo return the coinOwner address and the data embedded in coin \n\t\t\treturn(lovecoin[_coinID].coinOwner,lovecoin[_coinID].data);\n\t\t}\n\t\t\n\t\t/**\n\t\t * @dev changeOwner is a internal callable function which will change the ownership of a coin\n\t\t * it only accept valid ethereum address and valid coin id and function change the ownership\n\t\t * to the given address\n\t\t * function will throw if the address or coin Id is invalid and if the msg.sender is not \n\t\t * the coin owner\n\t\t */ \n\n\t\tfunction changeOwner(address _to, uint256 _coinID) internal { \n        // This function will Throw if the coin id is invalid , the msg.sender is not the owner of coin\n        // and if the address is not valid\n\t\t\trequire(\n\t\t\t    _to != 0 &&\n\t\t\t\t_coinID > 0 &&\n\t\t\t\ttotalSupply >= _coinID &&\n\t\t\t\tlovecoin[_coinID].coinOwner == msg.sender \n\t\t\t\t);\n\t\t        // change the owner of the coin as the new owner from the address variable _to\n\t\t\t\tlovecoin[_coinID].coinOwner = _to; \n\t\t        // update the coin balance of sender as decrement by one\n\t\t\t\ttotalOwned[msg.sender] -= 1;\n\t\t\t\t// update the coin balance of reciepient ad decerement by one\n\t\t\t\ttotalOwned[_to] += 1;\n\t\t\t\t// call the event to store the change ownership details in the block\n\t\t\t\tLoveTransfer(msg.sender,_to,_coinID);\n\n\t\t\t\n\t\t}\n\t\t\n\t\t/**\n\t\t * @dev function listLove will list the entire coins and their owners\n\t\t * \n\t\t */\n\t\tfunction listLove() public constant returns(uint256[],address[])  {\n\t\t    \n\t\t\t    // this function will throw if the msg.sender is not the contractr deployer\n\t\t\t    // this constant function is restricted to the owner only because the blockchain reading time may be high\n\t\t\t    // since it recieves largest amont of elemsnts upto 50000 this may result time lag so to avoid un necessory \n\t\t\t    // call to this function\n\t\t\t\trequire(\n\t\t\t\t    owner == msg.sender\n\t\t\t\t    );\n\t\t\t\t// decalring length with the total supply to inititliase the array of coins and owners with the length \n\t\t\t\tuint256 length = totalSupply+1;\n\t\t\t\tuint256[] memory coinIDs = new uint256[](length);\n\t\t\t\taddress[] memory owners = new address[](length);\n\t\t\t\t\n\t\t\t\t\n\t\t\t\t//looping the coinIDs and check wether the id is availble to sell , then it added to the selling list for diplay\n\t\t\t\tfor(uint256 i = 1; i<length; i++)  {\n\t\t\t\t\t\tLove memory lovewall;\n\t\t\t\t\t\tlovewall = lovecoin[i];\n\t\t\t\t\t\tcoinIDs[i]=lovewall.coinID; \n\t\t\t\t\t\towners[i]=lovewall.coinOwner;\n\t\t\t\t}\n\t\t\t\t return (coinIDs,owners);\n\t\t}\n\t\t\n\t\t/**\n\t\t * @dev function giftLove is gift the coin to other valid ethereum addresses. \n\t\t * this will change the ownership to the given addresses\n\t\t * and allow to change the encoded data in the coinOwner\n\t\t * throws when invalid coin id or sender is not the owner of coin\n\t\t */ \n\t\tfunction giftLove(uint256 _coinID, address _to, bytes32 _data) public returns (bool) { \n                //throws if the coin is invalid or the sender is not the owner of the coin.\n\t\t\t\trequire(\n\t\t\t\t\t_to != 0 &&\n\t\t\t\t\tlovecoin[_coinID].coinOwner == msg.sender &&\n\t\t\t\t\t_coinID > 0 &&\n\t\t\t\t\ttotalSupply >= _coinID\n\t\t\t\t\t\t); \n                //first operation done by giftLove is to change the ownership of the coin from current Owner to new owner ie: address of _to \n\t\t\t\t\tchangeOwner(_to, _coinID);\n\t\t\t\t\t\n\t\t\t\t\tlovecoin[_coinID].data = _data;\n\t\t\t\t\t\n\t\t\t\t\treturn true;\n\n\t\t}\n\t\t\n\t\tfunction allowRedeem(address _owner) public onlyOwner returns(bool) {\n\t\t    \n\t\t    require(\n\t\t        _owner != 0 &&\n\t\t        msg.sender == owner &&\n\t\t        redeem[_owner] == false\n\t\t        );\n\t\t        \n\t\t        redeem[_owner] = true;\n\t\t        return true;\n\t\t       \n\t\t}\n\t\t\n\t\t/**\n\t\t * @dev function readytoSell change the sell status of coin. it will accept the coin Id and amount for sale\n\t\t * and then added to the marketplace\n\t\t * throws when ivalid coin id or msg.sender is not the owner\n\t\t */ \n\t\tfunction readytoSell(uint256 _coinID,uint256 _amount) public returns(bool)   {\n\t\t\trequire(\n\t\t\t        _coinID > 0 &&\n\t\t\t\t\ttotalSupply >= _coinID &&\n\t\t\t\t\tlovecoin[_coinID].coinOwner == msg.sender\n\t\t\t\t\t);\n\t\t\t\t\t\n\t\t\t\t\tlovecoin[_coinID].sellAvailability = true;\n\t\t\t\t\tlovecoin[_coinID].sellPrice = _amount;\n\t\t\t\t\tsaleCount++;\n\t\t\t\t\t\n\t\t\t\t\n\t\t\t\t\treturn true;\n\t\t}\n\t    \n\t    /**\n\t     * @dev cancelSale will cancel the sale of a coin\n\t     * throws when coin id is invalid or invalid address\n\t     */ \n\t\tfunction cancelSale(uint256 _coinID) public returns(bool)   {\n\t\t    \n\t\t    require(\n\t\t        _coinID > 0 &&\n\t\t\t    totalSupply >= _coinID &&\n\t\t        lovecoin[_coinID].coinOwner == msg.sender &&\n\t\t        lovecoin[_coinID].sellAvailability == true \n\t\t        );  \n\t\t        \n\t\t        lovecoin[_coinID].sellAvailability = false;\n\t\t        lovecoin[_coinID].sellPrice = RATE;\n\t\t        saleCount--;\n\t\t        \n\t\t        return true;\n\t\t}\n\t\t\n\t\t\n\t\t/**\n\t\t * @dev saleList function returns the list of coins which are about to sell.\n\t\t * which includes coinId, owner and amount to buy the coinId\n\t\t */\n\t\tfunction saleList() public constant returns(uint256[],address[],uint256[])    {\n\t\t    \n\t\t    uint256 length = totalSupply+1;\n\t\t\tuint256 index=0;\n\t\t\tuint256[] memory coinIDs = new uint256[](saleCount);\n\t\t\taddress[] memory owners = new address[](saleCount);\n\t\t\tuint256[] memory sellPrices = new uint256[](saleCount);\n\t\t\t\t\n\t\t\t\t\n\t\t\t\t\n\t\t\t\tfor(uint256 i = 1; i<length; i++)  {\n\t\t\t\t    if(lovecoin[i].sellAvailability==true)  {\n\t\t\t\t\t\tLove memory lovewall;\n\t\t\t\t\t\tlovewall = lovecoin[i];\n\t\t\t\t\t\tcoinIDs[index]=lovewall.coinID; \n\t\t\t\t\t\towners[index]=lovewall.coinOwner;\n\t\t\t\t\t\tsellPrices[index] = lovewall.sellPrice;\n\t\t\t            index++;\t\n\t\t\t\t        }\n\t\t\t\t    }\n\t\t\t\t return (coinIDs,owners,sellPrices);\n\t\t}\n\n\t\t\n\t\tfunction bidcoin(uint256 _coinID, uint256 _amount) public returns(bool) {\n\t\t    \n\t\t    require(\n\t\t\t\t_coinID > 0 &&\n\t\t\t\ttotalSupply >= _coinID &&\n\t\t\t\t_amount > 0 &&\n\t\t\t\t_amount >= bid[_coinID].bidAmount &&\n\t\t\t\tbid[_coinID].ApprovalStatus == false\n\t\t\t\t);\n\t\t\t\t\n\t\t\t\tBid memory newBid;\n\t\t\t\ttotalBids++;\n\t\t\t\tnewBid.coinID = _coinID;\n\t\t\t\tnewBid.bidBy = msg.sender;\n\t\t\t\tnewBid.bidAmount = _amount;\n\t\t\t\tbid[_coinID] = newBid;\n\t\t}\n\t\t\n\t\t\n\t\tfunction showBid(uint256 _coinID) public constant returns(uint256,address) {\n                require(\n                    _coinID > 0 &&\n\t\t\t\t    totalSupply >= _coinID\n                    );\n\t\t        return(bid[_coinID].bidAmount,bid[_coinID].bidBy);\n\t\t\t\t\n\t\t}\n\n\t\tfunction approveBid(uint256 _coinID) public returns (bool) {\n\t\t\t\t\n\t\t\t\trequire(\n\t\t\t\t        _coinID > 0 &&\n\t\t\t\t        totalSupply >= _coinID &&\n\t\t\t\t\t\tlovecoin[_coinID].coinOwner == msg.sender &&\n\t\t\t\t\t\tbid[_coinID].bidAmount != 0 \n\t\t\t\t\t\t\n\t\t\t\t\t\t);        \n\t\t\t\t\t\t\n\t\t\t\t\t\tbid[_coinID].ApprovalStatus=true;\n\t\t\t\t\t\treturn true; \n\t\t}\n\t\t\n\t\tfunction postSale(uint256 _coinID) public payable returns(bool) {\n\t        require(lovecoin[_coinID].sellAvailability == true &&\n\t                msg.value == lovecoin[_coinID].sellPrice\n\t                \n\t        );\n\t        address _currentOwner =  lovecoin[_coinID].coinOwner;\n\t \n    \t   lovecoin[_coinID].coinOwner = msg.sender; \n\t\t   // update the coin balance of sender as decrement by one\n\t\t\ttotalOwned[_currentOwner] -= 1;\n\t\t\t// update the coin balance of reciepient ad decerement by one\n\t\t\ttotalOwned[msg.sender] += 1;\n\t\t\t// call the event to store the change ownership details in the block\n\t        lovecoin[_coinID].sellPrice=RATE;\n\t        lovecoin[_coinID].sellAvailability= false;\n\t        saleCount--;\n\t        LoveTransfer(_currentOwner,msg.sender,_coinID);\n\t        return true;\n\t\t}\n\t\t\n\t\tfunction claimLove(uint256 _coinID) public payable returns(bool)  {\n\t\t\t\t\n\t\t\t\trequire(\n\t\t\t\t        msg.value == bid[_coinID].bidAmount &&\n\t\t\t\t\t\tbid[_coinID].bidBy == msg.sender &&\n\t\t\t\t\t\tbid[_coinID].ApprovalStatus == true \n\t\t\t\t\t\t);\n\t\t\t\t\t\t\n\t\t\t\t\t\taddress currentOwner = lovecoin[_coinID].coinOwner;\n\t\t\t\t\t    \n\t\t\t\t\t\tlovecoin[_coinID].coinOwner = msg.sender; \n\t\t\t\t\t\ttotalOwned[currentOwner] -= 1;\n\t\t\t\t\t\ttotalOwned[msg.sender] += 1;\n\t\t\t\t\t\tdelete bid[_coinID];\n\t\t\t\t\t\tcurrentOwner.transfer(msg.value);\n\t\t\t\t\t\tLoveTransfer(currentOwner,msg.sender,_coinID);\n\t\t\t\t\t\treturn true;\n\t\t\t\t\t\t\n\t\t}\n\t\t\n\t\t\n\t\tfunction lovesbyOwner() public constant returns(uint256[])  {\n\t\t\t\t\n\t\t\t\tuint256[] memory _coinID = new uint256[](totalOwned[msg.sender]);\n\t\t\t\tuint8 _index = 0;\n\t\t\t\tfor(uint256 i=1; i<(totalSupply+1);i++) {\n\t\t\n\t\t\t\t\t\tif(lovecoin[i].coinOwner == msg.sender) {\n\t\t\t\t\n\t\t\t\t\t\t\t\t_coinID[_index] = lovecoin[i].coinID;\n\t\t\t\t\t\t\t\t_index++;\n\t\t\t\t\t\t}\n\t\t\t\t}  \n\t\t\t\treturn (_coinID);\n\t\t} \n\t    \n\t   \n\t\tfunction name() public pure returns(string) {\n\t\t\t\t\t\treturn NAME;\n\t\t}\n\n\t\tfunction symbol() public pure returns(string) {\n\t\t\t\treturn SYMBOL;\n\t\t}\n\n\t\tfunction totalSupply() public constant returns(uint256) {\n\t\t\t\treturn totalSupply;\n\t\t}\n\n\t\tfunction balanceOf(address _owner) public constant returns(uint)  {\n\t\t\t\treturn totalOwned[_owner];\n\t\t}\n\t\tfunction totalredeemcount() public constant returns(uint256)  {\n\t\t\t\treturn redeemCount;\n\t\t}\n\n\t\tfunction isSoldout() public constant returns (bool) {\n\n\t\t\treturn (totalSupply == 50000);\n\n\t\t}\n\n\t\n\n\t\tevent LoveTransfer(address indexed _owner, address _to, uint256 _coinID);\n\t\tevent CreateLove(address indexed _owner, uint256 _coinID);\n\t\tevent Bidding (address indexed _from,uint256 _bidID, uint256 _coinID, uint256 _bidAmount);\n\t\tevent ApproveBid(address indexed _from, uint256 _bidID, uint256 _coinID, uint256 _bidAmount);\n\t\tevent Claim(address indexed _from,address _to,uint256 _bidID, uint256 _coinID, uint256 _bidAmount);\n\t\t\n}\n\n\n\n",
  "sourcePath": "/home/blockchainexpert/contracts/Lovecoin/contracts/Lovecoincore.sol",
  "compiler": {
    "name": "solc",
    "version": "0.4.18+commit.9cf6e910.Emscripten.clang"
  },
  "schemaVersion": "1.0.1",
  "updatedAt": "2018-03-02T09:59:10.845Z"
}