{
  "contractName": "Lovecoincore",
  "abi": [
    {
      "constant": false,
      "inputs": [
        {
          "name": "_coinID",
          "type": "uint256"
        }
      ],
      "name": "cancelBidApproval",
      "outputs": [
        {
          "name": "",
          "type": "bool"
        }
      ],
      "payable": false,
      "stateMutability": "nonpayable",
      "type": "function"
    },
    {
      "constant": true,
      "inputs": [],
      "name": "name",
      "outputs": [
        {
          "name": "",
          "type": "string"
        }
      ],
      "payable": false,
      "stateMutability": "pure",
      "type": "function"
    },
    {
      "constant": false,
      "inputs": [
        {
          "name": "_coinID",
          "type": "uint256"
        },
        {
          "name": "_to",
          "type": "address"
        },
        {
          "name": "_data",
          "type": "bytes32"
        },
        {
          "name": "_message",
          "type": "bytes"
        }
      ],
      "name": "giftLove",
      "outputs": [
        {
          "name": "",
          "type": "bool"
        }
      ],
      "payable": false,
      "stateMutability": "nonpayable",
      "type": "function"
    },
    {
      "constant": true,
      "inputs": [],
      "name": "redeemCount",
      "outputs": [
        {
          "name": "",
          "type": "uint256"
        }
      ],
      "payable": false,
      "stateMutability": "view",
      "type": "function"
    },
    {
      "constant": false,
      "inputs": [],
      "name": "createLove",
      "outputs": [
        {
          "name": "",
          "type": "bool"
        }
      ],
      "payable": true,
      "stateMutability": "payable",
      "type": "function"
    },
    {
      "constant": true,
      "inputs": [],
      "name": "totalSupply",
      "outputs": [
        {
          "name": "",
          "type": "uint256"
        }
      ],
      "payable": false,
      "stateMutability": "view",
      "type": "function"
    },
    {
      "constant": true,
      "inputs": [
        {
          "name": "_coinID",
          "type": "uint256"
        }
      ],
      "name": "showBid",
      "outputs": [
        {
          "name": "",
          "type": "uint256"
        },
        {
          "name": "",
          "type": "address"
        }
      ],
      "payable": false,
      "stateMutability": "view",
      "type": "function"
    },
    {
      "constant": true,
      "inputs": [],
      "name": "saleList",
      "outputs": [
        {
          "name": "",
          "type": "uint256[]"
        },
        {
          "name": "",
          "type": "address[]"
        },
        {
          "name": "",
          "type": "uint256[]"
        }
      ],
      "payable": false,
      "stateMutability": "view",
      "type": "function"
    },
    {
      "constant": false,
      "inputs": [
        {
          "name": "_coinID",
          "type": "uint256"
        }
      ],
      "name": "postSale",
      "outputs": [
        {
          "name": "",
          "type": "bool"
        }
      ],
      "payable": true,
      "stateMutability": "payable",
      "type": "function"
    },
    {
      "constant": false,
      "inputs": [
        {
          "name": "_coinID",
          "type": "uint256"
        },
        {
          "name": "_amount",
          "type": "uint256"
        }
      ],
      "name": "readytoSell",
      "outputs": [
        {
          "name": "",
          "type": "bool"
        }
      ],
      "payable": false,
      "stateMutability": "nonpayable",
      "type": "function"
    },
    {
      "constant": true,
      "inputs": [],
      "name": "listLove",
      "outputs": [
        {
          "name": "",
          "type": "uint256[]"
        },
        {
          "name": "",
          "type": "address[]"
        }
      ],
      "payable": false,
      "stateMutability": "view",
      "type": "function"
    },
    {
      "constant": true,
      "inputs": [],
      "name": "totalredeemCount",
      "outputs": [
        {
          "name": "",
          "type": "uint256"
        }
      ],
      "payable": false,
      "stateMutability": "view",
      "type": "function"
    },
    {
      "constant": false,
      "inputs": [
        {
          "name": "_coinID",
          "type": "uint256"
        }
      ],
      "name": "approveBid",
      "outputs": [
        {
          "name": "",
          "type": "bool"
        }
      ],
      "payable": false,
      "stateMutability": "nonpayable",
      "type": "function"
    },
    {
      "constant": true,
      "inputs": [],
      "name": "RATE",
      "outputs": [
        {
          "name": "",
          "type": "uint256"
        }
      ],
      "payable": false,
      "stateMutability": "view",
      "type": "function"
    },
    {
      "constant": true,
      "inputs": [
        {
          "name": "_owner",
          "type": "address"
        }
      ],
      "name": "balanceOf",
      "outputs": [
        {
          "name": "",
          "type": "uint256"
        }
      ],
      "payable": false,
      "stateMutability": "view",
      "type": "function"
    },
    {
      "constant": true,
      "inputs": [],
      "name": "totalBids",
      "outputs": [
        {
          "name": "",
          "type": "uint256"
        }
      ],
      "payable": false,
      "stateMutability": "view",
      "type": "function"
    },
    {
      "constant": true,
      "inputs": [],
      "name": "owner",
      "outputs": [
        {
          "name": "",
          "type": "address"
        }
      ],
      "payable": false,
      "stateMutability": "view",
      "type": "function"
    },
    {
      "constant": true,
      "inputs": [],
      "name": "symbol",
      "outputs": [
        {
          "name": "",
          "type": "string"
        }
      ],
      "payable": false,
      "stateMutability": "pure",
      "type": "function"
    },
    {
      "constant": false,
      "inputs": [
        {
          "name": "_coinID",
          "type": "uint256"
        }
      ],
      "name": "cancelBid",
      "outputs": [
        {
          "name": "",
          "type": "bool"
        }
      ],
      "payable": false,
      "stateMutability": "nonpayable",
      "type": "function"
    },
    {
      "constant": true,
      "inputs": [],
      "name": "isSoldout",
      "outputs": [
        {
          "name": "",
          "type": "bool"
        }
      ],
      "payable": false,
      "stateMutability": "view",
      "type": "function"
    },
    {
      "constant": true,
      "inputs": [],
      "name": "saleCount",
      "outputs": [
        {
          "name": "",
          "type": "uint256"
        }
      ],
      "payable": false,
      "stateMutability": "view",
      "type": "function"
    },
    {
      "constant": true,
      "inputs": [],
      "name": "NAME",
      "outputs": [
        {
          "name": "",
          "type": "string"
        }
      ],
      "payable": false,
      "stateMutability": "view",
      "type": "function"
    },
    {
      "constant": false,
      "inputs": [
        {
          "name": "_coinID",
          "type": "uint256"
        }
      ],
      "name": "cancelSale",
      "outputs": [
        {
          "name": "",
          "type": "bool"
        }
      ],
      "payable": false,
      "stateMutability": "nonpayable",
      "type": "function"
    },
    {
      "constant": false,
      "inputs": [
        {
          "name": "_coinID",
          "type": "uint256"
        }
      ],
      "name": "claimLove",
      "outputs": [
        {
          "name": "",
          "type": "bool"
        }
      ],
      "payable": true,
      "stateMutability": "payable",
      "type": "function"
    },
    {
      "constant": true,
      "inputs": [
        {
          "name": "_coinID",
          "type": "uint256"
        }
      ],
      "name": "getLoveinfo",
      "outputs": [
        {
          "name": "_owner",
          "type": "address"
        },
        {
          "name": "_data",
          "type": "bytes32"
        },
        {
          "name": "_message",
          "type": "bytes"
        }
      ],
      "payable": false,
      "stateMutability": "view",
      "type": "function"
    },
    {
      "constant": false,
      "inputs": [
        {
          "name": "_coinID",
          "type": "uint256"
        },
        {
          "name": "_amount",
          "type": "uint256"
        }
      ],
      "name": "bidcoin",
      "outputs": [
        {
          "name": "",
          "type": "bool"
        }
      ],
      "payable": false,
      "stateMutability": "nonpayable",
      "type": "function"
    },
    {
      "constant": true,
      "inputs": [],
      "name": "lovesbyOwner",
      "outputs": [
        {
          "name": "",
          "type": "uint256[]"
        }
      ],
      "payable": false,
      "stateMutability": "view",
      "type": "function"
    },
    {
      "constant": false,
      "inputs": [
        {
          "name": "_owner",
          "type": "address"
        }
      ],
      "name": "allowRedeem",
      "outputs": [
        {
          "name": "",
          "type": "bool"
        }
      ],
      "payable": false,
      "stateMutability": "nonpayable",
      "type": "function"
    },
    {
      "constant": true,
      "inputs": [],
      "name": "SYMBOL",
      "outputs": [
        {
          "name": "",
          "type": "string"
        }
      ],
      "payable": false,
      "stateMutability": "view",
      "type": "function"
    },
    {
      "payable": true,
      "stateMutability": "payable",
      "type": "fallback"
    },
    {
      "anonymous": false,
      "inputs": [
        {
          "indexed": true,
          "name": "_owner",
          "type": "address"
        },
        {
          "indexed": false,
          "name": "_to",
          "type": "address"
        },
        {
          "indexed": false,
          "name": "_coinID",
          "type": "uint256"
        }
      ],
      "name": "LoveTransfer",
      "type": "event"
    },
    {
      "anonymous": false,
      "inputs": [
        {
          "indexed": true,
          "name": "_owner",
          "type": "address"
        },
        {
          "indexed": false,
          "name": "_coinID",
          "type": "uint256"
        }
      ],
      "name": "CreateLove",
      "type": "event"
    },
    {
      "anonymous": false,
      "inputs": [
        {
          "indexed": true,
          "name": "_from",
          "type": "address"
        },
        {
          "indexed": false,
          "name": "_bidID",
          "type": "uint256"
        },
        {
          "indexed": false,
          "name": "_coinID",
          "type": "uint256"
        },
        {
          "indexed": false,
          "name": "_bidAmount",
          "type": "uint256"
        }
      ],
      "name": "Bidding",
      "type": "event"
    },
    {
      "anonymous": false,
      "inputs": [
        {
          "indexed": true,
          "name": "_from",
          "type": "address"
        },
        {
          "indexed": false,
          "name": "_bidID",
          "type": "uint256"
        },
        {
          "indexed": false,
          "name": "_coinID",
          "type": "uint256"
        },
        {
          "indexed": false,
          "name": "_bidAmount",
          "type": "uint256"
        }
      ],
      "name": "ApproveBid",
      "type": "event"
    },
    {
      "anonymous": false,
      "inputs": [
        {
          "indexed": true,
          "name": "_from",
          "type": "address"
        },
        {
          "indexed": false,
          "name": "_to",
          "type": "address"
        },
        {
          "indexed": false,
          "name": "_bidID",
          "type": "uint256"
        },
        {
          "indexed": false,
          "name": "_coinID",
          "type": "uint256"
        },
        {
          "indexed": false,
          "name": "_bidAmount",
          "type": "uint256"
        }
      ],
      "name": "Claim",
      "type": "event"
    }
  ],
  "bytecode": "0x60606040526000600155600060025560006003556000600455336000806101000a81548173ffffffffffffffffffffffffffffffffffffffff021916908373ffffffffffffffffffffffffffffffffffffffff16021790555061301f806100676000396000f300606060405260043610610175576000357c0100000000000000000000000000000000000000000000000000000000900463ffffffff16806306339673146103ce57806306fdde03146104095780630842de4d14610497578063126717cd1461054157806317817ee71461056a57806318160ddd1461058c5780632b50ef0e146105b557806337e3e1d31461061f578063385608711461071957806348b23d6a146107495780635f6591721461078d57806360b1189d1461083f578063613e867e14610868578063664e9704146108a357806370a08231146108cc5780638b034136146109195780638da5cb5b1461094257806395d89b41146109975780639703ef3514610a255780639b66b96e14610a60578063a1e89aec14610a8d578063a3f4df7e14610ab6578063bd94b00514610b44578063bf16ec2714610b7f578063c609d9a214610baf578063e185f7f314610c8d578063e20a3b9814610cd1578063f019849a14610d3b578063f76f8d7814610d8c575b61017d612dd1565b60003411801561019357506632cdc63449c00034145b80156101aa5750600015156101a6610e1a565b1515145b15156101b557600080fd5b60016000815480929190600101919050555060015481600001818152505033816040019073ffffffffffffffffffffffffffffffffffffffff16908173ffffffffffffffffffffffffffffffffffffffff168152505080600760006001548152602001908152602001600020600082015181600001556020820151816001015560408201518160020160006101000a81548173ffffffffffffffffffffffffffffffffffffffff021916908373ffffffffffffffffffffffffffffffffffffffff1602179055506060820151816003019060001916905560808201518160040190805190602001906102a8929190612e29565b5060a08201518160050160006101000a81548160ff0219169083151502179055509050506001600560003373ffffffffffffffffffffffffffffffffffffffff1673ffffffffffffffffffffffffffffffffffffffff168152602001908152602001600020600082825401925050819055506000809054906101000a900473ffffffffffffffffffffffffffffffffffffffff1673ffffffffffffffffffffffffffffffffffffffff166108fc349081150290604051600060405180830381858888f19350505050151561037b57600080fd5b3373ffffffffffffffffffffffffffffffffffffffff167f231af552c9f50ae1dc17ddd58c0784de0c960d470660314678be69593587bc756001546040518082815260200191505060405180910390a250005b34156103d957600080fd5b6103ef6004808035906020019091905050610e28565b604051808215151515815260200191505060405180910390f35b341561041457600080fd5b61041c610f27565b6040518080602001828103825283818151815260200191508051906020019080838360005b8381101561045c578082015181840152602081019050610441565b50505050905090810190601f1680156104895780820380516001836020036101000a031916815260200191505b509250505060405180910390f35b34156104a257600080fd5b610527600480803590602001909190803573ffffffffffffffffffffffffffffffffffffffff169060200190919080356000191690602001909190803590602001908201803590602001908080601f01602080910402602001604051908101604052809392919081815260200183838082843782019150505050505091905050610f6a565b604051808215151515815260200191505060405180910390f35b341561054c57600080fd5b610554611078565b6040518082815260200191505060405180910390f35b61057261107e565b604051808215151515815260200191505060405180910390f35b341561059757600080fd5b61059f611461565b6040518082815260200191505060405180910390f35b34156105c057600080fd5b6105d6600480803590602001909190505061146b565b604051808381526020018273ffffffffffffffffffffffffffffffffffffffff1673ffffffffffffffffffffffffffffffffffffffff1681526020019250505060405180910390f35b341561062a57600080fd5b6106326114e2565b60405180806020018060200180602001848103845287818151815260200191508051906020019060200280838360005b8381101561067d578082015181840152602081019050610662565b50505050905001848103835286818151815260200191508051906020019060200280838360005b838110156106bf5780820151818401526020810190506106a4565b50505050905001848103825285818151815260200191508051906020019060200280838360005b838110156107015780820151818401526020810190506106e6565b50505050905001965050505050505060405180910390f35b61072f60048080359060200190919050506117e6565b604051808215151515815260200191505060405180910390f35b341561075457600080fd5b6107736004808035906020019091908035906020019091905050611a9a565b604051808215151515815260200191505060405180910390f35b341561079857600080fd5b6107a0611b8b565b604051808060200180602001838103835285818151815260200191508051906020019060200280838360005b838110156107e75780820151818401526020810190506107cc565b50505050905001838103825284818151815260200191508051906020019060200280838360005b8381101561082957808201518184015260208101905061080e565b5050505090500194505050505060405180910390f35b341561084a57600080fd5b610852611e4e565b6040518082815260200191505060405180910390f35b341561087357600080fd5b6108896004808035906020019091905050611eb3565b604051808215151515815260200191505060405180910390f35b34156108ae57600080fd5b6108b6611f99565b6040518082815260200191505060405180910390f35b34156108d757600080fd5b610903600480803573ffffffffffffffffffffffffffffffffffffffff16906020019091905050611fa4565b6040518082815260200191505060405180910390f35b341561092457600080fd5b61092c611fed565b6040518082815260200191505060405180910390f35b341561094d57600080fd5b610955611ff3565b604051808273ffffffffffffffffffffffffffffffffffffffff1673ffffffffffffffffffffffffffffffffffffffff16815260200191505060405180910390f35b34156109a257600080fd5b6109aa612018565b6040518080602001828103825283818151815260200191508051906020019080838360005b838110156109ea5780820151818401526020810190506109cf565b50505050905090810190601f168015610a175780820380516001836020036101000a031916815260200191505b509250505060405180910390f35b3415610a3057600080fd5b610a46600480803590602001909190505061205b565b604051808215151515815260200191505060405180910390f35b3415610a6b57600080fd5b610a73610e1a565b604051808215151515815260200191505060405180910390f35b3415610a9857600080fd5b610aa0612159565b6040518082815260200191505060405180910390f35b3415610ac157600080fd5b610ac961215f565b6040518080602001828103825283818151815260200191508051906020019080838360005b83811015610b09578082015181840152602081019050610aee565b50505050905090810190601f168015610b365780820380516001836020036101000a031916815260200191505b509250505060405180910390f35b3415610b4f57600080fd5b610b656004808035906020019091905050612198565b604051808215151515815260200191505060405180910390f35b610b9560048080359060200190919050506122c3565b604051808215151515815260200191505060405180910390f35b3415610bba57600080fd5b610bd060048080359060200190919050506125e1565b604051808473ffffffffffffffffffffffffffffffffffffffff1673ffffffffffffffffffffffffffffffffffffffff168152602001836000191660001916815260200180602001828103825283818151815260200191508051906020019080838360005b83811015610c50578082015181840152602081019050610c35565b50505050905090810190601f168015610c7d5780820380516001836020036101000a031916815260200191505b5094505050505060405180910390f35b3415610c9857600080fd5b610cb76004808035906020019091908035906020019091905050612716565b604051808215151515815260200191505060405180910390f35b3415610cdc57600080fd5b610ce4612895565b6040518080602001828103825283818151815260200191508051906020019060200280838360005b83811015610d27578082015181840152602081019050610d0c565b505050509050019250505060405180910390f35b3415610d4657600080fd5b610d72600480803573ffffffffffffffffffffffffffffffffffffffff169060200190919050506129dc565b604051808215151515815260200191505060405180910390f35b3415610d9757600080fd5b610d9f612b74565b6040518080602001828103825283818151815260200191508051906020019080838360005b83811015610ddf578082015181840152602081019050610dc4565b50505050905090810190601f168015610e0c5780820380516001836020036101000a031916815260200191505b509250505060405180910390f35b600061c35060015414905090565b60003373ffffffffffffffffffffffffffffffffffffffff166007600084815260200190815260200160002060020160009054906101000a900473ffffffffffffffffffffffffffffffffffffffff1673ffffffffffffffffffffffffffffffffffffffff16148015610eb1575060006006600084815260200190815260200160002060010154115b8015610ee45750600115156006600084815260200190815260200160002060020160149054906101000a900460ff161515145b1515610eef57600080fd5b60006006600084815260200190815260200160002060020160146101000a81548160ff02191690831515021790555060019050919050565b610f2f612ea9565b6040805190810160405280600881526020017f4c6f7665636f696e000000000000000000000000000000000000000000000000815250905090565b6000808473ffffffffffffffffffffffffffffffffffffffff1614158015610ff357503373ffffffffffffffffffffffffffffffffffffffff166007600087815260200190815260200160002060020160009054906101000a900473ffffffffffffffffffffffffffffffffffffffff1673ffffffffffffffffffffffffffffffffffffffff16145b8015610fff5750600085115b801561100d57508460015410155b151561101857600080fd5b6110228486612bad565b826007600087815260200190815260200160002060030181600019169055508160076000878152602001908152602001600020600401908051906020019061106b929190612ebd565b5060019050949350505050565b60035481565b6000611088612dd1565b6632cdc63449c00034148061115357506000809054906101000a900473ffffffffffffffffffffffffffffffffffffffff1673ffffffffffffffffffffffffffffffffffffffff163373ffffffffffffffffffffffffffffffffffffffff161480611143575060011515600860003373ffffffffffffffffffffffffffffffffffffffff1673ffffffffffffffffffffffffffffffffffffffff16815260200190815260200160002060009054906101000a900460ff161515145b80156111525750611388600354105b5b801561116a575060001515611166610e1a565b1515145b151561117557600080fd5b60016000815480929190600101919050555060015481600001818152505033816040019073ffffffffffffffffffffffffffffffffffffffff16908173ffffffffffffffffffffffffffffffffffffffff168152505080600760006001548152602001908152602001600020600082015181600001556020820151816001015560408201518160020160006101000a81548173ffffffffffffffffffffffffffffffffffffffff021916908373ffffffffffffffffffffffffffffffffffffffff160217905550606082015181600301906000191690556080820151816004019080519060200190611268929190612e29565b5060a08201518160050160006101000a81548160ff0219169083151502179055509050506001600560003373ffffffffffffffffffffffffffffffffffffffff1673ffffffffffffffffffffffffffffffffffffffff1681526020019081526020016000206000828254019250508190555060003414156113a85760036000815480929190600101919050555060011515600860003373ffffffffffffffffffffffffffffffffffffffff1673ffffffffffffffffffffffffffffffffffffffff16815260200190815260200160002060009054906101000a900460ff16151514156113a7576000600860003373ffffffffffffffffffffffffffffffffffffffff1673ffffffffffffffffffffffffffffffffffffffff16815260200190815260200160002060006101000a81548160ff0219169083151502179055505b5b6000809054906101000a900473ffffffffffffffffffffffffffffffffffffffff1673ffffffffffffffffffffffffffffffffffffffff166108fc349081150290604051600060405180830381858888f19350505050151561140957600080fd5b3373ffffffffffffffffffffffffffffffffffffffff167f231af552c9f50ae1dc17ddd58c0784de0c960d470660314678be69593587bc756001546040518082815260200191505060405180910390a2600191505090565b6000600154905090565b60008060008311801561148057508260015410155b151561148b57600080fd5b60066000848152602001908152602001600020600101546006600085815260200190815260200160002060020160009054906101000a900473ffffffffffffffffffffffffffffffffffffffff1691509150915091565b6114ea612f3d565b6114f2612f51565b6114fa612f3d565b600080611505612f3d565b61150d612f51565b611515612f3d565b600061151f612dd1565b600180540196506000955060045460405180591061153a5750595b9080825280602002602001820160405250945060045460405180591061155d5750595b908082528060200260200182016040525093506004546040518059106115805750595b90808252806020026020018201604052509250600191505b868210156117d157600115156007600084815260200190815260200160002060050160009054906101000a900460ff16151514156117c4576007600083815260200190815260200160002060c0604051908101604052908160008201548152602001600182015481526020016002820160009054906101000a900473ffffffffffffffffffffffffffffffffffffffff1673ffffffffffffffffffffffffffffffffffffffff1673ffffffffffffffffffffffffffffffffffffffff168152602001600382015460001916600019168152602001600482018054600181600116156101000203166002900480601f0160208091040260200160405190810160405280929190818152602001828054600181600116156101000203166002900480156117045780601f106116d957610100808354040283529160200191611704565b820191906000526020600020905b8154815290600101906020018083116116e757829003601f168201915b505050505081526020016005820160009054906101000a900460ff16151515158152505090508060000151858781518110151561173d57fe5b90602001906020020181815250508060400151848781518110151561175e57fe5b9060200190602002019073ffffffffffffffffffffffffffffffffffffffff16908173ffffffffffffffffffffffffffffffffffffffff1681525050806020015183878151811015156117ad57fe5b906020019060200201818152505085806001019650505b8180600101925050611598565b84848499509950995050505050505050909192565b600080600115156007600085815260200190815260200160002060050160009054906101000a900460ff1615151480156118355750600760008481526020019081526020016000206001015434145b151561184057600080fd5b6007600084815260200190815260200160002060020160009054906101000a900473ffffffffffffffffffffffffffffffffffffffff169050336007600085815260200190815260200160002060020160006101000a81548173ffffffffffffffffffffffffffffffffffffffff021916908373ffffffffffffffffffffffffffffffffffffffff1602179055506001600560008373ffffffffffffffffffffffffffffffffffffffff1673ffffffffffffffffffffffffffffffffffffffff168152602001908152602001600020600082825403925050819055506001600560003373ffffffffffffffffffffffffffffffffffffffff1673ffffffffffffffffffffffffffffffffffffffff168152602001908152602001600020600082825401925050819055506632cdc63449c000600760008581526020019081526020016000206001018190555060006007600085815260200190815260200160002060050160006101000a81548160ff021916908315150217905550600460008154809291906001900391905055508073ffffffffffffffffffffffffffffffffffffffff166108fc349081150290604051600060405180830381858888f193505050501515611a0e57600080fd5b8073ffffffffffffffffffffffffffffffffffffffff167f8769eccac688ad377ef9ae470a1fe69698f6aa24b14f80fd973d545dc6d008403385604051808373ffffffffffffffffffffffffffffffffffffffff1673ffffffffffffffffffffffffffffffffffffffff1681526020018281526020019250505060405180910390a26001915050919050565b60008083118015611aad57508260015410155b8015611b1a57503373ffffffffffffffffffffffffffffffffffffffff166007600085815260200190815260200160002060020160009054906101000a900473ffffffffffffffffffffffffffffffffffffffff1673ffffffffffffffffffffffffffffffffffffffff16145b1515611b2557600080fd5b60016007600085815260200190815260200160002060050160006101000a81548160ff0219169083151502179055508160076000858152602001908152602001600020600101819055506004600081548092919060010191905055506001905092915050565b611b93612f3d565b611b9b612f51565b6000611ba5612f3d565b611bad612f51565b6000611bb7612dd1565b3373ffffffffffffffffffffffffffffffffffffffff166000809054906101000a900473ffffffffffffffffffffffffffffffffffffffff1673ffffffffffffffffffffffffffffffffffffffff16141515611c1257600080fd5b6001805401945084604051805910611c275750595b9080825280602002602001820160405250935084604051805910611c485750595b90808252806020026020018201604052509250600191505b84821015611e3f576007600083815260200190815260200160002060c0604051908101604052908160008201548152602001600182015481526020016002820160009054906101000a900473ffffffffffffffffffffffffffffffffffffffff1673ffffffffffffffffffffffffffffffffffffffff1673ffffffffffffffffffffffffffffffffffffffff168152602001600382015460001916600019168152602001600482018054600181600116156101000203166002900480601f016020809104026020016040519081016040528092919081815260200182805460018160011615610100020316600290048015611d9c5780601f10611d7157610100808354040283529160200191611d9c565b820191906000526020600020905b815481529060010190602001808311611d7f57829003601f168201915b505050505081526020016005820160009054906101000a900460ff161515151581525050905080600001518483815181101515611dd557fe5b906020019060200201818152505080604001518383815181101515611df657fe5b9060200190602002019073ffffffffffffffffffffffffffffffffffffffff16908173ffffffffffffffffffffffffffffffffffffffff16815250508180600101925050611c60565b83839650965050505050509091565b60008060009054906101000a900473ffffffffffffffffffffffffffffffffffffffff1673ffffffffffffffffffffffffffffffffffffffff163373ffffffffffffffffffffffffffffffffffffffff16141515611eab57600080fd5b600354905090565b60008082118015611ec657508160015410155b8015611f3357503373ffffffffffffffffffffffffffffffffffffffff166007600084815260200190815260200160002060020160009054906101000a900473ffffffffffffffffffffffffffffffffffffffff1673ffffffffffffffffffffffffffffffffffffffff16145b8015611f5657506000600660008481526020019081526020016000206001015414155b1515611f6157600080fd5b60016006600084815260200190815260200160002060020160146101000a81548160ff02191690831515021790555060019050919050565b6632cdc63449c00081565b6000600560008373ffffffffffffffffffffffffffffffffffffffff1673ffffffffffffffffffffffffffffffffffffffff168152602001908152602001600020549050919050565b60025481565b6000809054906101000a900473ffffffffffffffffffffffffffffffffffffffff1681565b612020612ea9565b6040805190810160405280600481526020017f4c4f564500000000000000000000000000000000000000000000000000000000815250905090565b60003373ffffffffffffffffffffffffffffffffffffffff166007600084815260200190815260200160002060020160009054906101000a900473ffffffffffffffffffffffffffffffffffffffff1673ffffffffffffffffffffffffffffffffffffffff161480156120e4575060006006600084815260200190815260200160002060010154115b15156120ef57600080fd5b6006600083815260200190815260200160002060008082016000905560018201600090556002820160006101000a81549073ffffffffffffffffffffffffffffffffffffffff02191690556002820160146101000a81549060ff0219169055505060019050919050565b60045481565b6040805190810160405280600881526020017f4c6f7665636f696e00000000000000000000000000000000000000000000000081525081565b600080821180156121ab57508160015410155b801561221857503373ffffffffffffffffffffffffffffffffffffffff166007600084815260200190815260200160002060020160009054906101000a900473ffffffffffffffffffffffffffffffffffffffff1673ffffffffffffffffffffffffffffffffffffffff16145b801561224b5750600115156007600084815260200190815260200160002060050160009054906101000a900460ff161515145b151561225657600080fd5b60006007600084815260200190815260200160002060050160006101000a81548160ff0219169083151502179055506632cdc63449c00060076000848152602001908152602001600020600101819055506004600081548092919060019003919050555060019050919050565b60008060066000848152602001908152602001600020600101543414801561234c57503373ffffffffffffffffffffffffffffffffffffffff166006600085815260200190815260200160002060020160009054906101000a900473ffffffffffffffffffffffffffffffffffffffff1673ffffffffffffffffffffffffffffffffffffffff16145b801561237f5750600115156006600085815260200190815260200160002060020160149054906101000a900460ff161515145b151561238a57600080fd5b6007600084815260200190815260200160002060020160009054906101000a900473ffffffffffffffffffffffffffffffffffffffff169050336007600085815260200190815260200160002060020160006101000a81548173ffffffffffffffffffffffffffffffffffffffff021916908373ffffffffffffffffffffffffffffffffffffffff1602179055506001600560008373ffffffffffffffffffffffffffffffffffffffff1673ffffffffffffffffffffffffffffffffffffffff168152602001908152602001600020600082825403925050819055506001600560003373ffffffffffffffffffffffffffffffffffffffff1673ffffffffffffffffffffffffffffffffffffffff168152602001908152602001600020600082825401925050819055506006600084815260200190815260200160002060008082016000905560018201600090556002820160006101000a81549073ffffffffffffffffffffffffffffffffffffffff02191690556002820160146101000a81549060ff021916905550508073ffffffffffffffffffffffffffffffffffffffff166108fc349081150290604051600060405180830381858888f19350505050151561255557600080fd5b8073ffffffffffffffffffffffffffffffffffffffff167f8769eccac688ad377ef9ae470a1fe69698f6aa24b14f80fd973d545dc6d008403385604051808373ffffffffffffffffffffffffffffffffffffffff1673ffffffffffffffffffffffffffffffffffffffff1681526020018281526020019250505060405180910390a26001915050919050565b6000806125ec612f65565b6000841180156125fe57506001548411155b151561260957600080fd5b6007600085815260200190815260200160002060020160009054906101000a900473ffffffffffffffffffffffffffffffffffffffff16600760008681526020019081526020016000206003015460076000878152602001908152602001600020600401808054600181600116156101000203166002900480601f0160208091040260200160405190810160405280929190818152602001828054600181600116156101000203166002900480156127025780601f106126d757610100808354040283529160200191612702565b820191906000526020600020905b8154815290600101906020018083116126e557829003601f168201915b505050505090509250925092509193909250565b6000612720612f79565b60008411801561273257508360015410155b801561273e5750600083115b8015612760575060066000858152602001908152602001600020600101548310155b80156127935750600015156006600086815260200190815260200160002060020160149054906101000a900460ff161515145b151561279e57600080fd5b6002600081548092919060010191905055508381600001818152505033816040019073ffffffffffffffffffffffffffffffffffffffff16908173ffffffffffffffffffffffffffffffffffffffff1681525050828160200181815250508060066000868152602001908152602001600020600082015181600001556020820151816001015560408201518160020160006101000a81548173ffffffffffffffffffffffffffffffffffffffff021916908373ffffffffffffffffffffffffffffffffffffffff16021790555060608201518160020160146101000a81548160ff0219169083151502179055509050505092915050565b61289d612f3d565b6128a5612f3d565b600080600560003373ffffffffffffffffffffffffffffffffffffffff1673ffffffffffffffffffffffffffffffffffffffff168152602001908152602001600020546040518059106128f55750595b9080825280602002602001820160405250925060009150600190505b60018054018110156129d3573373ffffffffffffffffffffffffffffffffffffffff166007600083815260200190815260200160002060020160009054906101000a900473ffffffffffffffffffffffffffffffffffffffff1673ffffffffffffffffffffffffffffffffffffffff1614156129c6576007600082815260200190815260200160002060000154838360ff168151811015156129af57fe5b906020019060200201818152505081806001019250505b8080600101915050612911565b82935050505090565b60008060009054906101000a900473ffffffffffffffffffffffffffffffffffffffff1673ffffffffffffffffffffffffffffffffffffffff163373ffffffffffffffffffffffffffffffffffffffff16141515612a3957600080fd5b60008273ffffffffffffffffffffffffffffffffffffffff1614158015612aac57506000809054906101000a900473ffffffffffffffffffffffffffffffffffffffff1673ffffffffffffffffffffffffffffffffffffffff163373ffffffffffffffffffffffffffffffffffffffff16145b8015612b08575060001515600860008473ffffffffffffffffffffffffffffffffffffffff1673ffffffffffffffffffffffffffffffffffffffff16815260200190815260200160002060009054906101000a900460ff161515145b1515612b1357600080fd5b6001600860008473ffffffffffffffffffffffffffffffffffffffff1673ffffffffffffffffffffffffffffffffffffffff16815260200190815260200160002060006101000a81548160ff02191690831515021790555060019050919050565b6040805190810160405280600481526020017f4c4f56450000000000000000000000000000000000000000000000000000000081525081565b60008273ffffffffffffffffffffffffffffffffffffffff1614158015612bd45750600081115b8015612be257508060015410155b8015612c4f57503373ffffffffffffffffffffffffffffffffffffffff166007600083815260200190815260200160002060020160009054906101000a900473ffffffffffffffffffffffffffffffffffffffff1673ffffffffffffffffffffffffffffffffffffffff16145b1515612c5a57600080fd5b816007600083815260200190815260200160002060020160006101000a81548173ffffffffffffffffffffffffffffffffffffffff021916908373ffffffffffffffffffffffffffffffffffffffff1602179055506001600560003373ffffffffffffffffffffffffffffffffffffffff1673ffffffffffffffffffffffffffffffffffffffff168152602001908152602001600020600082825403925050819055506001600560008473ffffffffffffffffffffffffffffffffffffffff1673ffffffffffffffffffffffffffffffffffffffff168152602001908152602001600020600082825401925050819055503373ffffffffffffffffffffffffffffffffffffffff167f8769eccac688ad377ef9ae470a1fe69698f6aa24b14f80fd973d545dc6d008408383604051808373ffffffffffffffffffffffffffffffffffffffff1673ffffffffffffffffffffffffffffffffffffffff1681526020018281526020019250505060405180910390a25050565b60c0604051908101604052806000815260200160008152602001600073ffffffffffffffffffffffffffffffffffffffff16815260200160008019168152602001612e1a612fba565b81526020016000151581525090565b828054600181600116156101000203166002900490600052602060002090601f016020900481019282601f10612e6a57805160ff1916838001178555612e98565b82800160010185558215612e98579182015b82811115612e97578251825591602001919060010190612e7c565b5b509050612ea59190612fce565b5090565b602060405190810160405280600081525090565b828054600181600116156101000203166002900490600052602060002090601f016020900481019282601f10612efe57805160ff1916838001178555612f2c565b82800160010185558215612f2c579182015b82811115612f2b578251825591602001919060010190612f10565b5b509050612f399190612fce565b5090565b602060405190810160405280600081525090565b602060405190810160405280600081525090565b602060405190810160405280600081525090565b6080604051908101604052806000815260200160008152602001600073ffffffffffffffffffffffffffffffffffffffff1681526020016000151581525090565b602060405190810160405280600081525090565b612ff091905b80821115612fec576000816000905550600101612fd4565b5090565b905600a165627a7a723058208390dc6a13c0c5e0f36f28f01f9299ab0dca46ecd53bbe37d225efb8a990081c0029",
  "source": "pragma solidity ^0.4.2;\n \n \n/**\n * @title Ownable\n * @dev The Ownable contract has an owner address, and provides basic authorization control\n * functions, this simplifies the implementation of \"user permissions\".\n */\n \ncontract Ownable {\n \n \n    address public owner;\n    \n    /**\n     * @dev Throws if called by any account other than the owner.\n     */\n \n    modifier onlyOwner()  {\n        require(\n            msg.sender == owner\n            );\n            _;\n    }\n    \n    /**\n     * @dev The Ownable constructor sets the original `owner` of the contract to the sender\n     * account.\n     */\n \n    function Ownable () public {\n        owner = msg.sender;\n    }\n}\n \n/**\n * @title contract Lovecoincore.\n * @dev Lovecoincore is basically an ERC721 token.\n * @author Blockchain Expert.\n*/\ncontract Lovecoincore is Ownable{\n        //@param NAME is defines the name of the token as ERC721 standared  \n        string public constant NAME = \"Lovecoin\";\n        //@param SYMBOL defines the ERC721 standared symbol for token\n        string public constant SYMBOL = \"LOVE\";\n        //@param RATE defines cost of 1 token in wei equals 0.0143 ETH.\n        uint256 public constant RATE = 14300000000000000;\n        //@param totalSupply defines number of tokens created by the smartcontract yet\n        uint256 public totalSupply = 0;\n        //@param totalBids defines total number of bids created yet\n        uint256 public totalBids = 0;\n        //@param redeemCount defines total redeems are applied this count is limited to 5000. and the 5000 is  \n        //allowed to create for developers and owner allowed users\n        uint256 public redeemCount = 0;\n        uint256 public saleCount = 0;\n \n        /**\n         * @param totalOwned is the two dimensional mapping from the address to uint which stores\n         * the love coin balance curresponds coin owner\n         * @param bid is the mapping from BID structure to the uint which stores the highest price\n         * bid for each coin\n         * @param lovecoin is the mapping from uint to the Love structure which stores each love coin\n         */\n          \n        // @param totalOwned is used to store the number of coin owned by each account\n        mapping (address => uint256) totalOwned;\n        // @param bid is used to store Bids  \n        mapping (uint256 => Bid) bid;\n        // @param lovecoin is used to store the Love coins\n        mapping (uint256 => Love) lovecoin;\n        // @param redeem stores the redeem status(true or false) for any account that get the permission to redeem coin\n        mapping (address => bool) redeem;\n        \n        /**\n         * @param Love is a structure consist of Coin id, Selling price of coin, address of coin owner,\n         * data to be encoded in the coin, ststus of selling availability.\n          */\n         \n        // @param Love is a structure which consist of coin attributes, Each Love coin is combined of these unique value\n        // each time creating a Love coin will generate an instance of this structure with the attributes\n        // This is the skeleton of the ERC721 standared token with unique Id and data without fungiability\n        struct Love {\n             \n            // @param coinID is the unique id. starts from 1 and end at 100000. this is the unique id to identify each of the love coin token\n            // coinID is uint256 type value  \n            uint256 coinID;\n            // @param sellPrice defines the selling price of a generated coin\n            // by default, this will be 0.0143 ETH (normal token cost), when the token sale in future, user can upadte this sellPrice\n            uint256 sellPrice;\n            // @param coinOwner is defines the owner of the particular coin. this should be a valid ethereum address.\n            // this can't be set manually and this will automatically fetch from the wallet (Metmask like wallet)\n            address coinOwner;\n            // @param data stores the data to encoded in the coin. this is the hexa decimal format of concatenated string of  \n            // the two Names that the user would like to add to the coin.\n            // data should be read from the frontend as string and it will concatenated and pass to the function .\n            // bytes32 data type automatically made the type coversion and it will generate a hexadecimal value of the string.\n            // bytes32 used since it consume less storage space and EVM(Ethereum Virtual Machine) works with 32 bytes of data\n            // so here EVM doesn't need coversion and directly process the 32 bytes of data. this will readuce tha gas limit and token creation cost\n            bytes32 data;\n            // @param sellAvailability store the status whether the coin has to sell or not.  sellAvailability is a bool type variable\n            // it initially set to false and when the coin holder call readytoSell function this value become true.\n            bytes message;\n            bool sellAvailability;\n            \n        }\n        /**\n         * @param Bid is a structure combined of Bidding data including Coin id, Bidding amount, address of bidder\n         * status of bid ApprovalStatus\n         *  \n         */\n        \n        struct Bid {\n           \n            // @param coinID reference to the coin ID that going to bid.  \n            uint256 coinID;\n            // @param bidAmount is uint256 type Bid variable to store the amount of ether for the bid.\n            uint256 bidAmount;\n            // @param bidBy is the address which stores the address of bidder.\n            address bidBy;\n            // @param ApprovalStatus is the status of bid. toggle true and false for a coin when bid is created and claimed\n            bool ApprovalStatus;\n        }\n        \n        /**\n         * @dev createLove is a payable function it accepts only 14300000000000000 wei(0.0143 ETH), and create a love coin in the  \n         * ownership of the sender\n         * this function throws when the amount send to the contract is less or greater than 0.016 ETH\n         * @dev isSoldout function ensure the availability of coin (ie: total production less than 1 lakh)\n         * @dev the amount send to the function is the cost of the coin and this will transfer to the contract deployer\n         * @dev once the correct amount paid and coin generated. then the amount of ether no more retrived.\n         */\n          \n        function () public payable {\n             \n             \n            // function to generate a fresh lovecoin with a unique id          \n            require(\n                msg.value > 0 &&\n                // RATE is the cost of coin\n                msg.value == RATE &&\n                // check wether the coin is soldout or not\n                isSoldout() == false\n                );\n                // Here we create a dummy Love structure called propose to temporarly add the coin data\n                // and we will finally add the data into the structure array\n                Love memory propose;\n                //total supply should be increment befor the starting of the process since we take the total supply count as the  \n                // refernce for the coin id\n                totalSupply++;\n                propose.coinID = totalSupply;\n                //coin owner is set as the the user account using msg.sender\n                propose.coinOwner = msg.sender;\n                // the dummy is added to the original lovecoin data store\n                lovecoin[totalSupply] = propose;\n                // @param totalOwned is the balance of msg.sender this will increment finally\n                totalOwned[msg.sender] += 1;\n                // in case the value that passed is 0 which means that this transaction was a redeem so the redeem count will icremented by 1\n                // for the future reference\n                 \n                             // after the completion of coin ctreation the the amount of ether that provided by the msg.sender as the cost of the coin\n                // will send to the Lovecoin Smartcontract deployer account\n            owner.transfer(msg.value);    \n            // Event CreateLove is called to add the creation details to the block which includes the sender address and the coin Id\n            CreateLove(msg.sender, totalSupply);\n        \n        }\n \n        function createLove () public payable returns(bool){\n            // function to generate a fresh lovecoin with a unique id          \n            require(\n                // RATE is the cost of coin\n                (msg.value == RATE ||\n                // For the redeem purpose of 1000 coins we check whether the account holder has added to the redeem array\n                ((msg.sender == owner ||\n                redeem[msg.sender] == true) &&\n                // redeem count should be less than 10% of capital\n                redeemCount < 5000)) &&  \n                // check wether the coin is soldout or not\n                isSoldout() == false\n                );\n                // Here we create a dummy Love structure called propose to temporarly add the coin data\n                // and we will finally add the data into the structure array\n                Love memory propose;\n                //total supply should be increment befor the starting of the process since we take the total supply count as the  \n                // refernce for the coin id\n                totalSupply++;\n                propose.coinID = totalSupply;\n                //coin owner is set as the the user account using msg.sender\n                propose.coinOwner = msg.sender;\n                // the dummy is added to the original lovecoin data store\n                lovecoin[totalSupply] = propose;\n                // @param totalOwned is the balance of msg.sender this will increment finally\n                totalOwned[msg.sender] += 1;\n                // in case the value that passed is 0 which means that this transaction was a redeem so the redeem count will icremented by 1\n                // for the future reference\n                if(msg.value==0)    {\n                    redeemCount++;\n                // the redeem status of the msg.sender is set as false to avoid dual spending of redeem\n                    if(redeem[msg.sender] == true) {\n                        redeem[msg.sender]=false;\n                    }\n                }\n                             // after the completion of coin ctreation the the amount of ether that provided by the msg.sender as the cost of the coin\n                // will send to the Lovecoin Smartcontract deployer account\n            owner.transfer(msg.value);    \n            // Event CreateLove is called to add the creation details to the block which includes the sender address and the coin Id\n            CreateLove(msg.sender, totalSupply);\n            return true;\n                \n        }\n        \n \n        /**\n         * @dev getLoveinfo is a constant function will return the stored informations of a coin  \n         * it will accept valid coin id, throws when invalid coin id is entered\n         */\n        function getLoveinfo(uint256 _coinID) external view returns(address _owner,bytes32 _data,bytes _message) {\n        // This function will throws if the coin Id is invalid\n            require(\n                _coinID > 0 &&\n                _coinID <= totalSupply  \n                );\n        // getLoveinfo return the coinOwner address and the data embedded in coin  \n            return(lovecoin[_coinID].coinOwner,lovecoin[_coinID].data,lovecoin[_coinID].message);\n        }\n        \n        /**\n         * @dev changeOwner is a internal callable function which will change the ownership of a coin\n         * it only accept valid ethereum address and valid coin id and function change the ownership\n         * to the given address\n         * function will throw if the address or coin Id is invalid and if the msg.sender is not  \n         * the coin owner\n         */  \n \n        function changeOwner(address _to, uint256 _coinID) internal {  \n        // This function will Throw if the coin id is invalid , the msg.sender is not the owner of coin\n        // and if the address is not valid\n            require(\n                _to != 0 &&\n                _coinID > 0 &&\n                totalSupply >= _coinID &&\n                lovecoin[_coinID].coinOwner == msg.sender  \n                );\n                // change the owner of the coin as the new owner from the address variable _to\n                lovecoin[_coinID].coinOwner = _to;  \n                // update the coin balance of sender as decrement by one\n                totalOwned[msg.sender] -= 1;\n                // update the coin balance of reciepient ad decerement by one\n                totalOwned[_to] += 1;\n                // call the event to store the change ownership details in the block\n                LoveTransfer(msg.sender,_to,_coinID);\n \n            \n        }\n        \n        /**\n         * @dev function listLove will list the entire coins and their owners\n         *  \n         */\n        function listLove() public constant returns(uint256[],address[])  {\n             \n                // this function will throw if the msg.sender is not the contractr deployer\n                // this constant function is restricted to the owner only because the blockchain reading time may be high\n                // since it recieves largest amont of elemsnts upto 50000 this may result time lag so to avoid un necessory  \n                // call to this function\n                require(\n                    owner == msg.sender\n                    );\n                // decalring length with the total supply to inititliase the array of coins and owners with the length  \n                uint256 length = totalSupply+1;\n                uint256[] memory coinIDs = new uint256[](length);\n                address[] memory owners = new address[](length);\n                \n                \n                //looping the coinIDs and check wether the id is availble to sell , then it added to the selling list for diplay\n                for(uint256 i = 1; i<length; i++)  {\n                        Love memory lovewall;\n                        lovewall = lovecoin[i];\n                        coinIDs[i]=lovewall.coinID;  \n                        owners[i]=lovewall.coinOwner;\n                }\n                 return (coinIDs,owners);\n        }\n        \n        /**\n         * @dev function giftLove is gift the coin to other valid ethereum addresses.  \n         * this will change the ownership to the given addresses\n         * and allow to change the encoded data in the coinOwner\n         * throws when invalid coin id or sender is not the owner of coin\n         */  \n        function giftLove(uint256 _coinID, address _to, bytes32 _data,bytes _message) public returns (bool) {  \n                //throws if the coin is invalid or the sender is not the owner of the coin.\n                require(\n                    _to != 0 &&\n                    lovecoin[_coinID].coinOwner == msg.sender &&\n                    _coinID > 0 &&\n                    totalSupply >= _coinID\n                        );  \n                //first operation done by giftLove is to change the ownership of the coin from current Owner to new owner ie: address of _to  \n                    changeOwner(_to, _coinID);\n                    \n                    lovecoin[_coinID].data = _data;\n                    lovecoin[_coinID].message = _message;\n                    \n                    return true;\n \n        }\n        \n        function allowRedeem(address _owner) public onlyOwner returns(bool) {\n             \n            require(\n                _owner != 0 &&\n                msg.sender == owner &&\n                redeem[_owner] == false\n                );\n                 \n                redeem[_owner] = true;\n                return true;\n                \n        }\n        \n        /**\n         * @dev function readytoSell change the sell status of coin. it will accept the coin Id and amount for sale\n         * and then added to the marketplace\n         * throws when ivalid coin id or msg.sender is not the owner\n         */  \n        function readytoSell(uint256 _coinID,uint256 _amount) public returns(bool)   {\n            require(\n                    _coinID > 0 &&\n                    totalSupply >= _coinID &&\n                    lovecoin[_coinID].coinOwner == msg.sender\n                    );\n                    \n                    lovecoin[_coinID].sellAvailability = true;\n                    lovecoin[_coinID].sellPrice = _amount;\n                    saleCount++;\n                    \n                \n                    return true;\n        }\n         \n        /**\n         * @dev cancelSale will cancel the sale of a coin\n         * throws when coin id is invalid or invalid address\n         */  \n        function cancelSale(uint256 _coinID) public returns(bool)   {\n             \n            require(\n                _coinID > 0 &&\n                totalSupply >= _coinID &&\n                lovecoin[_coinID].coinOwner == msg.sender &&\n                lovecoin[_coinID].sellAvailability == true  \n                );   \n                 \n                lovecoin[_coinID].sellAvailability = false;\n                lovecoin[_coinID].sellPrice = RATE;\n                saleCount--;\n                 \n                return true;\n        }\n        \n        \n        /**\n         * @dev saleList function returns the list of coins which are about to sell.\n         * which includes coinId, owner and amount to buy the coinId\n         */\n        function saleList() public constant returns(uint256[],address[],uint256[])    {\n             \n            uint256 length = totalSupply+1;\n            uint256 index=0;\n            uint256[] memory coinIDs = new uint256[](saleCount);\n            address[] memory owners = new address[](saleCount);\n            uint256[] memory sellPrices = new uint256[](saleCount);\n                \n                \n                \n                for(uint256 i = 1; i<length; i++)  {\n                    if(lovecoin[i].sellAvailability==true)  {\n                        Love memory lovewall;\n                        lovewall = lovecoin[i];\n                        coinIDs[index]=lovewall.coinID;  \n                        owners[index]=lovewall.coinOwner;\n                        sellPrices[index] = lovewall.sellPrice;\n                        index++;    \n                        }\n                    }\n                 return (coinIDs,owners,sellPrices);\n        }\n \n        \n        function bidcoin(uint256 _coinID, uint256 _amount) public returns(bool) {\n             \n            require(\n                _coinID > 0 &&\n                totalSupply >= _coinID &&\n                _amount > 0 &&\n                _amount >= bid[_coinID].bidAmount &&\n                bid[_coinID].ApprovalStatus == false\n                );\n                \n                Bid memory newBid;\n                totalBids++;\n                newBid.coinID = _coinID;\n                newBid.bidBy = msg.sender;\n                newBid.bidAmount = _amount;\n                bid[_coinID] = newBid;\n        }\n        \n        function cancelBid(uint256 _coinID) public returns (bool)\n        {\n            require(lovecoin[_coinID].coinOwner == msg.sender &&\n            bid[_coinID].bidAmount > 0\n            );\n            delete bid[_coinID];\n            return true;\n        }\n        \n        function cancelBidApproval(uint256 _coinID) public returns(bool)\n        {\n            require(lovecoin[_coinID].coinOwner == msg.sender &&\n            bid[_coinID].bidAmount > 0 &&\n            bid[_coinID].ApprovalStatus == true\n            );\n             \n            bid[_coinID].ApprovalStatus = false;\n            return true;\n        }\n        \n        function showBid(uint256 _coinID) public constant returns(uint256,address) {\n                require(\n                    _coinID > 0 &&\n                    totalSupply >= _coinID\n                    );\n                return(bid[_coinID].bidAmount,bid[_coinID].bidBy);\n                \n        }\n \n        function approveBid(uint256 _coinID) public returns (bool) {\n                \n                require(\n                        _coinID > 0 &&\n                        totalSupply >= _coinID &&\n                        lovecoin[_coinID].coinOwner == msg.sender &&\n                        bid[_coinID].bidAmount != 0  \n                        \n                        );         \n                        \n                        bid[_coinID].ApprovalStatus=true;\n                        return true;  \n        }\n        \n        function totalredeemCount() public view returns(uint256)\n        \n        {\n            require(msg.sender == owner);\n             \n            return(redeemCount);\n            \n        }\n        \n        function postSale(uint256 _coinID) public payable returns(bool) {\n            require(lovecoin[_coinID].sellAvailability == true &&\n                    msg.value == lovecoin[_coinID].sellPrice\n                     \n            );\n            address _currentOwner =  lovecoin[_coinID].coinOwner;\n      \n           lovecoin[_coinID].coinOwner = msg.sender;  \n           // update the coin balance of sender as decrement by one\n            totalOwned[_currentOwner] -= 1;\n            // update the coin balance of reciepient ad decerement by one\n            totalOwned[msg.sender] += 1;\n            // call the event to store the change ownership details in the block\n            lovecoin[_coinID].sellPrice=RATE;\n            lovecoin[_coinID].sellAvailability= false;\n            saleCount--;\n            _currentOwner.transfer(msg.value);\n            LoveTransfer(_currentOwner,msg.sender,_coinID);\n            return true;\n        }\n        \n        function claimLove(uint256 _coinID) public payable returns(bool)  {\n                \n                require(\n                        msg.value == bid[_coinID].bidAmount &&\n                        bid[_coinID].bidBy == msg.sender &&\n                        bid[_coinID].ApprovalStatus == true  \n                        );\n                        \n                        address currentOwner = lovecoin[_coinID].coinOwner;\n                         \n                        lovecoin[_coinID].coinOwner = msg.sender;  \n                        totalOwned[currentOwner] -= 1;\n                        totalOwned[msg.sender] += 1;\n                        delete bid[_coinID];\n                        currentOwner.transfer(msg.value);\n                        LoveTransfer(currentOwner,msg.sender,_coinID);\n                        return true;\n                        \n        }\n        \n        \n        function lovesbyOwner() public constant returns(uint256[])  {\n                \n                uint256[] memory _coinID = new uint256[](totalOwned[msg.sender]);\n                uint8 _index = 0;\n                for(uint256 i=1; i<(totalSupply+1);i++) {\n        \n                        if(lovecoin[i].coinOwner == msg.sender) {\n                \n                                _coinID[_index] = lovecoin[i].coinID;\n                                _index++;\n                        }\n                }   \n                return (_coinID);\n        }  \n         \n        \n        function name() public pure returns(string) {\n                        return NAME;\n        }\n \n        function symbol() public pure returns(string) {\n                return SYMBOL;\n        }\n \n        function totalSupply() public constant returns(uint256) {\n                return totalSupply;\n        }\n \n        function balanceOf(address _owner) public constant returns(uint)  {\n                return totalOwned[_owner];\n        }\n \n        function isSoldout() public constant returns (bool) {\n \n            return (totalSupply == 50000);\n \n        }\n \n    \n \n        event LoveTransfer(address indexed _owner, address _to, uint256 _coinID);\n        event CreateLove(address indexed _owner, uint256 _coinID);\n        event Bidding (address indexed _from,uint256 _bidID, uint256 _coinID, uint256 _bidAmount);\n        event ApproveBid(address indexed _from, uint256 _bidID, uint256 _coinID, uint256 _bidAmount);\n        event Claim(address indexed _from,address _to,uint256 _bidID, uint256 _coinID, uint256 _bidAmount);\n        \n}\n \n\n\n\n",
  "sourcePath": "/home/blockchainexpert/LovecoinCore/contracts/Lovecoincore.sol",
  "compiler": {
    "name": "solc",
    "version": "0.4.18+commit.9cf6e910.Emscripten.clang"
  },
  "schemaVersion": "1.0.1",
  "updatedAt": "2018-03-16T03:35:50.821Z"
}