{
  "contractName": "Ownable",
  "abi": [
    {
      "constant": true,
      "inputs": [],
      "name": "owner",
      "outputs": [
        {
          "name": "",
          "type": "address"
        }
      ],
      "payable": false,
      "stateMutability": "view",
      "type": "function"
    },
    {
      "inputs": [],
      "payable": false,
      "stateMutability": "nonpayable",
      "type": "constructor"
    }
  ],
  "bytecode": "0x6060604052341561000f57600080fd5b336000806101000a81548173ffffffffffffffffffffffffffffffffffffffff021916908373ffffffffffffffffffffffffffffffffffffffff16021790555060e78061005d6000396000f300606060405260043610603f576000357c0100000000000000000000000000000000000000000000000000000000900463ffffffff1680638da5cb5b146044575b600080fd5b3415604e57600080fd5b60546096565b604051808273ffffffffffffffffffffffffffffffffffffffff1673ffffffffffffffffffffffffffffffffffffffff16815260200191505060405180910390f35b6000809054906101000a900473ffffffffffffffffffffffffffffffffffffffff16815600a165627a7a72305820dac8aa2f45b3fbfd4bc681d8514a3ac80561338e726d23018b9a90d17201090b0029",
  "source": "pragma solidity ^0.4.2;\n \n \n/**\n * @title Ownable\n * @dev The Ownable contract has an owner address, and provides basic authorization control\n * functions, this simplifies the implementation of \"user permissions\".\n */\n \ncontract Ownable {\n \n \n    address public owner;\n    \n    /**\n     * @dev Throws if called by any account other than the owner.\n     */\n \n    modifier onlyOwner()  {\n        require(\n            msg.sender == owner\n            );\n            _;\n    }\n    \n    /**\n     * @dev The Ownable constructor sets the original `owner` of the contract to the sender\n     * account.\n     */\n \n    function Ownable () public {\n        owner = msg.sender;\n    }\n}\n \n/**\n * @title contract Lovecoincore.\n * @dev Lovecoincore is basically an ERC721 token.\n * @author Blockchain Expert.\n*/\ncontract Lovecoincore is Ownable{\n        //@param NAME is defines the name of the token as ERC721 standared  \n        string public constant NAME = \"Lovecoin\";\n        //@param SYMBOL defines the ERC721 standared symbol for token\n        string public constant SYMBOL = \"LOVE\";\n        //@param RATE defines cost of 1 token in wei equals 0.0143 ETH.\n        uint256 public constant RATE = 14300000000000000;\n        //@param totalSupply defines number of tokens created by the smartcontract yet\n        uint256 public totalSupply = 0;\n        //@param totalBids defines total number of bids created yet\n        uint256 public totalBids = 0;\n        //@param redeemCount defines total redeems are applied this count is limited to 5000. and the 5000 is  \n        //allowed to create for developers and owner allowed users\n        uint256 public redeemCount = 0;\n        uint256 public saleCount = 0;\n \n        /**\n         * @param totalOwned is the two dimensional mapping from the address to uint which stores\n         * the love coin balance curresponds coin owner\n         * @param bid is the mapping from BID structure to the uint which stores the highest price\n         * bid for each coin\n         * @param lovecoin is the mapping from uint to the Love structure which stores each love coin\n         */\n          \n        // @param totalOwned is used to store the number of coin owned by each account\n        mapping (address => uint256) totalOwned;\n        // @param bid is used to store Bids  \n        mapping (uint256 => Bid) bid;\n        // @param lovecoin is used to store the Love coins\n        mapping (uint256 => Love) lovecoin;\n        // @param redeem stores the redeem status(true or false) for any account that get the permission to redeem coin\n        mapping (address => bool) redeem;\n        \n        /**\n         * @param Love is a structure consist of Coin id, Selling price of coin, address of coin owner,\n         * data to be encoded in the coin, ststus of selling availability.\n          */\n         \n        // @param Love is a structure which consist of coin attributes, Each Love coin is combined of these unique value\n        // each time creating a Love coin will generate an instance of this structure with the attributes\n        // This is the skeleton of the ERC721 standared token with unique Id and data without fungiability\n        struct Love {\n             \n            // @param coinID is the unique id. starts from 1 and end at 100000. this is the unique id to identify each of the love coin token\n            // coinID is uint256 type value  \n            uint256 coinID;\n            // @param sellPrice defines the selling price of a generated coin\n            // by default, this will be 0.0143 ETH (normal token cost), when the token sale in future, user can upadte this sellPrice\n            uint256 sellPrice;\n            // @param coinOwner is defines the owner of the particular coin. this should be a valid ethereum address.\n            // this can't be set manually and this will automatically fetch from the wallet (Metmask like wallet)\n            address coinOwner;\n            // @param data stores the data to encoded in the coin. this is the hexa decimal format of concatenated string of  \n            // the two Names that the user would like to add to the coin.\n            // data should be read from the frontend as string and it will concatenated and pass to the function .\n            // bytes32 data type automatically made the type coversion and it will generate a hexadecimal value of the string.\n            // bytes32 used since it consume less storage space and EVM(Ethereum Virtual Machine) works with 32 bytes of data\n            // so here EVM doesn't need coversion and directly process the 32 bytes of data. this will readuce tha gas limit and token creation cost\n            bytes32 data;\n            // @param sellAvailability store the status whether the coin has to sell or not.  sellAvailability is a bool type variable\n            // it initially set to false and when the coin holder call readytoSell function this value become true.\n            bytes message;\n            bool sellAvailability;\n            \n        }\n        /**\n         * @param Bid is a structure combined of Bidding data including Coin id, Bidding amount, address of bidder\n         * status of bid ApprovalStatus\n         *  \n         */\n        \n        struct Bid {\n           \n            // @param coinID reference to the coin ID that going to bid.  \n            uint256 coinID;\n            // @param bidAmount is uint256 type Bid variable to store the amount of ether for the bid.\n            uint256 bidAmount;\n            // @param bidBy is the address which stores the address of bidder.\n            address bidBy;\n            // @param ApprovalStatus is the status of bid. toggle true and false for a coin when bid is created and claimed\n            bool ApprovalStatus;\n        }\n        \n        /**\n         * @dev createLove is a payable function it accepts only 14300000000000000 wei(0.0143 ETH), and create a love coin in the  \n         * ownership of the sender\n         * this function throws when the amount send to the contract is less or greater than 0.016 ETH\n         * @dev isSoldout function ensure the availability of coin (ie: total production less than 1 lakh)\n         * @dev the amount send to the function is the cost of the coin and this will transfer to the contract deployer\n         * @dev once the correct amount paid and coin generated. then the amount of ether no more retrived.\n         */\n          \n        function () public payable {\n             \n             \n            // function to generate a fresh lovecoin with a unique id          \n            require(\n                msg.value > 0 &&\n                // RATE is the cost of coin\n                msg.value == RATE &&\n                // check wether the coin is soldout or not\n                isSoldout() == false\n                );\n                // Here we create a dummy Love structure called propose to temporarly add the coin data\n                // and we will finally add the data into the structure array\n                Love memory propose;\n                //total supply should be increment befor the starting of the process since we take the total supply count as the  \n                // refernce for the coin id\n                totalSupply++;\n                propose.coinID = totalSupply;\n                //coin owner is set as the the user account using msg.sender\n                propose.coinOwner = msg.sender;\n                // the dummy is added to the original lovecoin data store\n                lovecoin[totalSupply] = propose;\n                // @param totalOwned is the balance of msg.sender this will increment finally\n                totalOwned[msg.sender] += 1;\n                // in case the value that passed is 0 which means that this transaction was a redeem so the redeem count will icremented by 1\n                // for the future reference\n                 \n                             // after the completion of coin ctreation the the amount of ether that provided by the msg.sender as the cost of the coin\n                // will send to the Lovecoin Smartcontract deployer account\n            owner.transfer(msg.value);    \n            // Event CreateLove is called to add the creation details to the block which includes the sender address and the coin Id\n            CreateLove(msg.sender, totalSupply);\n        \n        }\n \n        function createLove () public payable returns(bool){\n            // function to generate a fresh lovecoin with a unique id          \n            require(\n                // RATE is the cost of coin\n                (msg.value == RATE ||\n                // For the redeem purpose of 1000 coins we check whether the account holder has added to the redeem array\n                ((msg.sender == owner ||\n                redeem[msg.sender] == true) &&\n                // redeem count should be less than 10% of capital\n                redeemCount < 5000)) &&  \n                // check wether the coin is soldout or not\n                isSoldout() == false\n                );\n                // Here we create a dummy Love structure called propose to temporarly add the coin data\n                // and we will finally add the data into the structure array\n                Love memory propose;\n                //total supply should be increment befor the starting of the process since we take the total supply count as the  \n                // refernce for the coin id\n                totalSupply++;\n                propose.coinID = totalSupply;\n                //coin owner is set as the the user account using msg.sender\n                propose.coinOwner = msg.sender;\n                // the dummy is added to the original lovecoin data store\n                lovecoin[totalSupply] = propose;\n                // @param totalOwned is the balance of msg.sender this will increment finally\n                totalOwned[msg.sender] += 1;\n                // in case the value that passed is 0 which means that this transaction was a redeem so the redeem count will icremented by 1\n                // for the future reference\n                if(msg.value==0)    {\n                    redeemCount++;\n                // the redeem status of the msg.sender is set as false to avoid dual spending of redeem\n                    if(redeem[msg.sender] == true) {\n                        redeem[msg.sender]=false;\n                    }\n                }\n                             // after the completion of coin ctreation the the amount of ether that provided by the msg.sender as the cost of the coin\n                // will send to the Lovecoin Smartcontract deployer account\n            owner.transfer(msg.value);    \n            // Event CreateLove is called to add the creation details to the block which includes the sender address and the coin Id\n            CreateLove(msg.sender, totalSupply);\n            return true;\n                \n        }\n        \n \n        /**\n         * @dev getLoveinfo is a constant function will return the stored informations of a coin  \n         * it will accept valid coin id, throws when invalid coin id is entered\n         */\n        function getLoveinfo(uint256 _coinID) external view returns(address _owner,bytes32 _data,bytes _message) {\n        // This function will throws if the coin Id is invalid\n            require(\n                _coinID > 0 &&\n                _coinID <= totalSupply  \n                );\n        // getLoveinfo return the coinOwner address and the data embedded in coin  \n            return(lovecoin[_coinID].coinOwner,lovecoin[_coinID].data,lovecoin[_coinID].message);\n        }\n        \n        /**\n         * @dev changeOwner is a internal callable function which will change the ownership of a coin\n         * it only accept valid ethereum address and valid coin id and function change the ownership\n         * to the given address\n         * function will throw if the address or coin Id is invalid and if the msg.sender is not  \n         * the coin owner\n         */  \n \n        function changeOwner(address _to, uint256 _coinID) internal {  \n        // This function will Throw if the coin id is invalid , the msg.sender is not the owner of coin\n        // and if the address is not valid\n            require(\n                _to != 0 &&\n                _coinID > 0 &&\n                totalSupply >= _coinID &&\n                lovecoin[_coinID].coinOwner == msg.sender  \n                );\n                // change the owner of the coin as the new owner from the address variable _to\n                lovecoin[_coinID].coinOwner = _to;  \n                // update the coin balance of sender as decrement by one\n                totalOwned[msg.sender] -= 1;\n                // update the coin balance of reciepient ad decerement by one\n                totalOwned[_to] += 1;\n                // call the event to store the change ownership details in the block\n                LoveTransfer(msg.sender,_to,_coinID);\n \n            \n        }\n        \n        /**\n         * @dev function listLove will list the entire coins and their owners\n         *  \n         */\n        function listLove() public constant returns(uint256[],address[])  {\n             \n                // this function will throw if the msg.sender is not the contractr deployer\n                // this constant function is restricted to the owner only because the blockchain reading time may be high\n                // since it recieves largest amont of elemsnts upto 50000 this may result time lag so to avoid un necessory  \n                // call to this function\n                require(\n                    owner == msg.sender\n                    );\n                // decalring length with the total supply to inititliase the array of coins and owners with the length  \n                uint256 length = totalSupply+1;\n                uint256[] memory coinIDs = new uint256[](length);\n                address[] memory owners = new address[](length);\n                \n                \n                //looping the coinIDs and check wether the id is availble to sell , then it added to the selling list for diplay\n                for(uint256 i = 1; i<length; i++)  {\n                        Love memory lovewall;\n                        lovewall = lovecoin[i];\n                        coinIDs[i]=lovewall.coinID;  \n                        owners[i]=lovewall.coinOwner;\n                }\n                 return (coinIDs,owners);\n        }\n        \n        /**\n         * @dev function giftLove is gift the coin to other valid ethereum addresses.  \n         * this will change the ownership to the given addresses\n         * and allow to change the encoded data in the coinOwner\n         * throws when invalid coin id or sender is not the owner of coin\n         */  \n        function giftLove(uint256 _coinID, address _to, bytes32 _data,bytes _message) public returns (bool) {  \n                //throws if the coin is invalid or the sender is not the owner of the coin.\n                require(\n                    _to != 0 &&\n                    lovecoin[_coinID].coinOwner == msg.sender &&\n                    _coinID > 0 &&\n                    totalSupply >= _coinID\n                        );  \n                //first operation done by giftLove is to change the ownership of the coin from current Owner to new owner ie: address of _to  \n                    changeOwner(_to, _coinID);\n                    \n                    lovecoin[_coinID].data = _data;\n                    lovecoin[_coinID].message = _message;\n                    \n                    return true;\n \n        }\n        \n        function allowRedeem(address _owner) public onlyOwner returns(bool) {\n             \n            require(\n                _owner != 0 &&\n                msg.sender == owner &&\n                redeem[_owner] == false\n                );\n                 \n                redeem[_owner] = true;\n                return true;\n                \n        }\n        \n        /**\n         * @dev function readytoSell change the sell status of coin. it will accept the coin Id and amount for sale\n         * and then added to the marketplace\n         * throws when ivalid coin id or msg.sender is not the owner\n         */  \n        function readytoSell(uint256 _coinID,uint256 _amount) public returns(bool)   {\n            require(\n                    _coinID > 0 &&\n                    totalSupply >= _coinID &&\n                    lovecoin[_coinID].coinOwner == msg.sender\n                    );\n                    \n                    lovecoin[_coinID].sellAvailability = true;\n                    lovecoin[_coinID].sellPrice = _amount;\n                    saleCount++;\n                    \n                \n                    return true;\n        }\n         \n        /**\n         * @dev cancelSale will cancel the sale of a coin\n         * throws when coin id is invalid or invalid address\n         */  \n        function cancelSale(uint256 _coinID) public returns(bool)   {\n             \n            require(\n                _coinID > 0 &&\n                totalSupply >= _coinID &&\n                lovecoin[_coinID].coinOwner == msg.sender &&\n                lovecoin[_coinID].sellAvailability == true  \n                );   \n                 \n                lovecoin[_coinID].sellAvailability = false;\n                lovecoin[_coinID].sellPrice = RATE;\n                saleCount--;\n                 \n                return true;\n        }\n        \n        \n        /**\n         * @dev saleList function returns the list of coins which are about to sell.\n         * which includes coinId, owner and amount to buy the coinId\n         */\n        function saleList() public constant returns(uint256[],address[],uint256[])    {\n             \n            uint256 length = totalSupply+1;\n            uint256 index=0;\n            uint256[] memory coinIDs = new uint256[](saleCount);\n            address[] memory owners = new address[](saleCount);\n            uint256[] memory sellPrices = new uint256[](saleCount);\n                \n                \n                \n                for(uint256 i = 1; i<length; i++)  {\n                    if(lovecoin[i].sellAvailability==true)  {\n                        Love memory lovewall;\n                        lovewall = lovecoin[i];\n                        coinIDs[index]=lovewall.coinID;  \n                        owners[index]=lovewall.coinOwner;\n                        sellPrices[index] = lovewall.sellPrice;\n                        index++;    \n                        }\n                    }\n                 return (coinIDs,owners,sellPrices);\n        }\n \n        \n        function bidcoin(uint256 _coinID, uint256 _amount) public returns(bool) {\n             \n            require(\n                _coinID > 0 &&\n                totalSupply >= _coinID &&\n                _amount > 0 &&\n                _amount >= bid[_coinID].bidAmount &&\n                bid[_coinID].ApprovalStatus == false\n                );\n                \n                Bid memory newBid;\n                totalBids++;\n                newBid.coinID = _coinID;\n                newBid.bidBy = msg.sender;\n                newBid.bidAmount = _amount;\n                bid[_coinID] = newBid;\n        }\n        \n        function cancelBid(uint256 _coinID) public returns (bool)\n        {\n            require(lovecoin[_coinID].coinOwner == msg.sender &&\n            bid[_coinID].bidAmount > 0\n            );\n            delete bid[_coinID];\n            return true;\n        }\n        \n        function cancelBidApproval(uint256 _coinID) public returns(bool)\n        {\n            require(lovecoin[_coinID].coinOwner == msg.sender &&\n            bid[_coinID].bidAmount > 0 &&\n            bid[_coinID].ApprovalStatus == true\n            );\n             \n            bid[_coinID].ApprovalStatus = false;\n            return true;\n        }\n        \n        function showBid(uint256 _coinID) public constant returns(uint256,address) {\n                require(\n                    _coinID > 0 &&\n                    totalSupply >= _coinID\n                    );\n                return(bid[_coinID].bidAmount,bid[_coinID].bidBy);\n                \n        }\n \n        function approveBid(uint256 _coinID) public returns (bool) {\n                \n                require(\n                        _coinID > 0 &&\n                        totalSupply >= _coinID &&\n                        lovecoin[_coinID].coinOwner == msg.sender &&\n                        bid[_coinID].bidAmount != 0  \n                        \n                        );         \n                        \n                        bid[_coinID].ApprovalStatus=true;\n                        return true;  \n        }\n        \n        function totalredeemCount() public view returns(uint256)\n        \n        {\n            require(msg.sender == owner);\n             \n            return(redeemCount);\n            \n        }\n        \n        function postSale(uint256 _coinID) public payable returns(bool) {\n            require(lovecoin[_coinID].sellAvailability == true &&\n                    msg.value == lovecoin[_coinID].sellPrice\n                     \n            );\n            address _currentOwner =  lovecoin[_coinID].coinOwner;\n      \n           lovecoin[_coinID].coinOwner = msg.sender;  \n           // update the coin balance of sender as decrement by one\n            totalOwned[_currentOwner] -= 1;\n            // update the coin balance of reciepient ad decerement by one\n            totalOwned[msg.sender] += 1;\n            // call the event to store the change ownership details in the block\n            lovecoin[_coinID].sellPrice=RATE;\n            lovecoin[_coinID].sellAvailability= false;\n            saleCount--;\n            _currentOwner.transfer(msg.value);\n            LoveTransfer(_currentOwner,msg.sender,_coinID);\n            return true;\n        }\n        \n        function claimLove(uint256 _coinID) public payable returns(bool)  {\n                \n                require(\n                        msg.value == bid[_coinID].bidAmount &&\n                        bid[_coinID].bidBy == msg.sender &&\n                        bid[_coinID].ApprovalStatus == true  \n                        );\n                        \n                        address currentOwner = lovecoin[_coinID].coinOwner;\n                         \n                        lovecoin[_coinID].coinOwner = msg.sender;  \n                        totalOwned[currentOwner] -= 1;\n                        totalOwned[msg.sender] += 1;\n                        delete bid[_coinID];\n                        currentOwner.transfer(msg.value);\n                        LoveTransfer(currentOwner,msg.sender,_coinID);\n                        return true;\n                        \n        }\n        \n        \n        function lovesbyOwner() public constant returns(uint256[])  {\n                \n                uint256[] memory _coinID = new uint256[](totalOwned[msg.sender]);\n                uint8 _index = 0;\n                for(uint256 i=1; i<(totalSupply+1);i++) {\n        \n                        if(lovecoin[i].coinOwner == msg.sender) {\n                \n                                _coinID[_index] = lovecoin[i].coinID;\n                                _index++;\n                        }\n                }   \n                return (_coinID);\n        }  \n         \n        \n        function name() public pure returns(string) {\n                        return NAME;\n        }\n \n        function symbol() public pure returns(string) {\n                return SYMBOL;\n        }\n \n        function totalSupply() public constant returns(uint256) {\n                return totalSupply;\n        }\n \n        function balanceOf(address _owner) public constant returns(uint)  {\n                return totalOwned[_owner];\n        }\n \n        function isSoldout() public constant returns (bool) {\n \n            return (totalSupply == 50000);\n \n        }\n \n    \n \n        event LoveTransfer(address indexed _owner, address _to, uint256 _coinID);\n        event CreateLove(address indexed _owner, uint256 _coinID);\n        event Bidding (address indexed _from,uint256 _bidID, uint256 _coinID, uint256 _bidAmount);\n        event ApproveBid(address indexed _from, uint256 _bidID, uint256 _coinID, uint256 _bidAmount);\n        event Claim(address indexed _from,address _to,uint256 _bidID, uint256 _coinID, uint256 _bidAmount);\n        \n}\n \n\n\n\n",
  "sourcePath": "/home/blockchainexpert/LovecoinCore/contracts/Lovecoincore.sol",
  "compiler": {
    "name": "solc",
    "version": "0.4.18+commit.9cf6e910.Emscripten.clang"
  },
  "schemaVersion": "1.0.1",
  "updatedAt": "2018-03-16T03:35:44.573Z"
}