{
  "contractName": "Ownable",
  "abi": [
    {
      "constant": true,
      "inputs": [],
      "name": "owner",
      "outputs": [
        {
          "name": "",
          "type": "address"
        }
      ],
      "payable": false,
      "stateMutability": "view",
      "type": "function"
    },
    {
      "inputs": [],
      "payable": false,
      "stateMutability": "nonpayable",
      "type": "constructor"
    }
  ],
  "bytecode": "0x6060604052341561000f57600080fd5b336000806101000a81548173ffffffffffffffffffffffffffffffffffffffff021916908373ffffffffffffffffffffffffffffffffffffffff16021790555060e78061005d6000396000f300606060405260043610603f576000357c0100000000000000000000000000000000000000000000000000000000900463ffffffff1680638da5cb5b146044575b600080fd5b3415604e57600080fd5b60546096565b604051808273ffffffffffffffffffffffffffffffffffffffff1673ffffffffffffffffffffffffffffffffffffffff16815260200191505060405180910390f35b6000809054906101000a900473ffffffffffffffffffffffffffffffffffffffff16815600a165627a7a723058204d2497e2eacaf8fd6dafc55ee019d7d407c1fb1199c198b3a7bb1bc63a7e9d270029",
  "source": "pragma solidity ^0.4.2;\n\n\n/**\n * @title Ownable\n * @dev The Ownable contract has an owner address, and provides basic authorization control\n * functions, this simplifies the implementation of \"user permissions\".\n */\n\ncontract Ownable {\n\n\n\taddress public owner;\n\t\n\t/**\n     * @dev Throws if called by any account other than the owner.\n     */\n\n\tmodifier onlyOwner()  {\n\t\trequire(\n\t\t\tmsg.sender == owner\n\t\t\t);\n\t\t\t_;\n\t}\n\t\n    /**\n     * @dev The Ownable constructor sets the original `owner` of the contract to the sender\n     * account.\n     */\n\n\tfunction Ownable () public {\n\t\towner = msg.sender;\n\t}\n}\n\n/**\n * @title contract Lovecoincore.\n * @dev Lovecoincore is basically an ERC721 token.\n * @author Blockchain Expert.\n*/\ncontract Lovecoincore is Ownable{\n        //@param NAME is defines the name of the token as ERC721 standared \n\t\tstring public constant NAME = \"Lovecoin\";\n\t\t//@param SYMBOL defines the ERC721 standared symbol for token\n\t\tstring public constant SYMBOL = \"LOVE\";\n\t\t//@param RATE defines cost of 1 token in wei equals 0.0143 ETH.\n\t\tuint256 public constant RATE = 14300000000000000;\n        //@param totalSupply defines number of tokens created by the smartcontract yet\n\t\tuint256 public totalSupply = 0;\n\t\t//@param totalBids defines total number of bids created yet\n\t\tuint256 public totalBids = 0;\n\t\t//@param redeemCount defines total redeems are applied this count is limited to 5000. and the 5000 is \n\t\t//allowed to create for developers and owner allowed users\n\t\tuint256 public redeemCount = 0;\n\t\tuint256 public saleCount = 0;\n\n        /**\n         * @param totalOwned is the two dimensional mapping from the address to uint which stores\n         * the love coin balance curresponds coin owner\n         * @param bid is the mapping from BID structure to the uint which stores the highest price\n         * bid for each coin\n         * @param lovecoin is the mapping from uint to the Love structure which stores each love coin\n         */\n         \n        // @param totalOwned is used to store the number of coin owned by each account\n\t\tmapping (address => uint256) totalOwned;\n\t\t// @param bid is used to store Bids \n\t\tmapping (uint256 => Bid) bid;\n\t\t// @param lovecoin is used to store the Love coins\n\t\tmapping (uint256 => Love) lovecoin;\n\t\t// @param redeem stores the redeem status(true or false) for any account that get the permission to redeem coin\n\t\tmapping (address => bool) redeem;\n\t\t\n\t\t/**\n\t\t * @param Love is a structure consist of Coin id, Selling price of coin, address of coin owner,\n\t\t * data to be encoded in the coin, ststus of selling availability.\n\t \t */\n        \n        // @param Love is a structure which consist of coin attributes, Each Love coin is combined of these unique value\n        // each time creating a Love coin will generate an instance of this structure with the attributes\n        // This is the skeleton of the ERC721 standared token with unique Id and data without fungiability\n\t\tstruct Love {\n            \n            // @param coinID is the unique id. starts from 1 and end at 100000. this is the unique id to identify each of the love coin token\n            // coinID is uint256 type value \n\t\t\tuint256 coinID;\n\t\t\t// @param sellPrice defines the selling price of a generated coin\n\t\t\t// by default, this will be 0.0143 ETH (normal token cost), when the token sale in future, user can upadte this sellPrice\n\t\t\tuint256 sellPrice;\n\t\t\t// @param coinOwner is defines the owner of the particular coin. this should be a valid ethereum address.\n\t\t\t// this can't be set manually and this will automatically fetch from the wallet (Metmask like wallet)\n\t\t\taddress coinOwner;\n\t\t\t// @param data stores the data to encoded in the coin. this is the hexa decimal format of concatenated string of \n\t\t\t// the two Names that the user would like to add to the coin.\n\t\t\t// data should be read from the frontend as string and it will concatenated and pass to the function .\n\t\t\t// bytes32 data type automatically made the type coversion and it will generate a hexadecimal value of the string.\n\t\t\t// bytes32 used since it consume less storage space and EVM(Ethereum Virtual Machine) works with 32 bytes of data\n\t\t\t// so here EVM doesn't need coversion and directly process the 32 bytes of data. this will readuce tha gas limit and token creation cost\n\t\t\tbytes32 data;\n\t\t\t// @param sellAvailability store the status whether the coin has to sell or not.  sellAvailability is a bool type variable\n\t\t\t// it initially set to false and when the coin holder call readytoSell function this value become true.\n\t\t\tbool sellAvailability;\n\t\t\t\n\t\t}\n\t\t/**\n\t\t * @param Bid is a structure combined of Bidding data including Coin id, Bidding amount, address of bidder\n\t\t * status of bid ApprovalStatus\n\t\t * \n\t\t */\n\t\t\n\t\tstruct Bid {\n\t\t  \n\t\t    // @param coinID reference to the coin ID that going to bid. \n\t\t\tuint256 coinID;\n\t\t\t// @param bidAmount is uint256 type Bid variable to store the amount of ether for the bid.\n\t\t\tuint256 bidAmount;\n\t\t\t// @param bidBy is the address which stores the address of bidder.\n\t\t\taddress bidBy;\n\t\t\t// @param ApprovalStatus is the status of bid. toggle true and false for a coin when bid is created and claimed\n\t\t\tbool ApprovalStatus;\n\t\t}\n\t\t\n\t\t/**\n\t\t * @dev createLove is a payable function it accepts only 14300000000000000 wei(0.0143 ETH), and create a love coin in the \n\t\t * ownership of the sender\n\t\t * this function throws when the amount send to the contract is less or greater than 0.016 ETH\n\t\t * @dev isSoldout function ensure the availability of coin (ie: total production less than 1 lakh)\n\t\t * @dev the amount send to the function is the cost of the coin and this will transfer to the contract deployer\n\t\t * @dev once the correct amount paid and coin generated. then the amount of ether no more retrived.\n\t\t */\n\n\t\tfunction createLove () public payable returns(bool){\n\t\t    // function to generate a fresh lovecoin with a unique id  \t\t\n\t\t\trequire(\n\t\t\t    // RATE is the cost of coin\n\t\t\t\t(msg.value == RATE ||\n\t\t\t    // For the redeem purpose of 1000 coins we check whether the account holder has added to the redeem array\n\t\t\t\t((msg.sender == owner ||\n\t\t\t\tredeem[msg.sender] == true) &&\n\t\t\t\t// redeem count should be less than 10% of capital\n\t\t\t\tredeemCount < 5000)) && \n\t\t\t\t// check wether the coin is soldout or not\n\t\t\t\tisSoldout() == false\n\t\t\t\t);\n\t\t\t\t// Here we create a dummy Love structure called propose to temporarly add the coin data\n\t\t\t\t// and we will finally add the data into the structure array\n\t\t\t\tLove memory propose;\n\t\t\t\t//total supply should be increment befor the starting of the process since we take the total supply count as the \n\t\t\t\t// refernce for the coin id\n\t\t\t    totalSupply++;\n\t\t\t    propose.coinID = totalSupply;\n\t\t\t    //coin owner is set as the the user account using msg.sender\n\t\t\t    propose.coinOwner = msg.sender;\n\t\t\t    // the dummy is added to the original lovecoin data store\n\t\t\t    lovecoin[totalSupply] = propose;\n\t\t\t    // @param totalOwned is the balance of msg.sender this will increment finally\n\t\t\t    totalOwned[msg.sender] += 1;\n\t\t\t    // in case the value that passed is 0 which means that this transaction was a redeem so the redeem count will icremented by 1\n\t\t\t    // for the future reference\n\t\t\t    if(msg.value==0)    {\n\t\t\t        redeemCount++;\n\t\t\t    // the redeem status of the msg.sender is set as false to avoid dual spending of redeem\n\t\t\t        if(redeem[msg.sender] == true) {\n\t\t\t            redeem[msg.sender]=false;\n\t\t\t        }\n\t\t\t    }\n\t\t\t \t\t\t    // after the completion of coin ctreation the the amount of ether that provided by the msg.sender as the cost of the coin\n\t\t\t    // will send to the Lovecoin Smartcontract deployer account\n\t\t\towner.transfer(msg.value);   \n            // Event CreateLove is called to add the creation details to the block which includes the sender address and the coin Id\n\t\t\tCreateLove(msg.sender, totalSupply);\n\t\t\treturn true;\n\t\t\t\t\n\t\t}\n\t\t\n\n        /**\n         * @dev getLoveinfo is a constant function will return the stored informations of a coin \n         * it will accept valid coin id, throws when invalid coin id is entered\n         */\n\t\tfunction getLoveinfo(uint256 _coinID) external view returns(address _owner,bytes32 _data) {\n\t\t// This function will throws if the coin Id is invalid\n\t\t\trequire(\n\t\t\t\t_coinID > 0 &&\n\t\t\t\t_coinID <= totalSupply \n\t\t\t\t);\n        // getLoveinfo return the coinOwner address and the data embedded in coin \n\t\t\treturn(lovecoin[_coinID].coinOwner,lovecoin[_coinID].data);\n\t\t}\n\t\t\n\t\t/**\n\t\t * @dev changeOwner is a internal callable function which will change the ownership of a coin\n\t\t * it only accept valid ethereum address and valid coin id and function change the ownership\n\t\t * to the given address\n\t\t * function will throw if the address or coin Id is invalid and if the msg.sender is not \n\t\t * the coin owner\n\t\t */ \n\n\t\tfunction changeOwner(address _to, uint256 _coinID) internal { \n        // This function will Throw if the coin id is invalid , the msg.sender is not the owner of coin\n        // and if the address is not valid\n\t\t\trequire(\n\t\t\t    _to != 0 &&\n\t\t\t\t_coinID > 0 &&\n\t\t\t\ttotalSupply >= _coinID &&\n\t\t\t\tlovecoin[_coinID].coinOwner == msg.sender \n\t\t\t\t);\n\t\t        // change the owner of the coin as the new owner from the address variable _to\n\t\t\t\tlovecoin[_coinID].coinOwner = _to; \n\t\t        // update the coin balance of sender as decrement by one\n\t\t\t\ttotalOwned[msg.sender] -= 1;\n\t\t\t\t// update the coin balance of reciepient ad decerement by one\n\t\t\t\ttotalOwned[_to] += 1;\n\t\t\t\t// call the event to store the change ownership details in the block\n\t\t\t\tLoveTransfer(msg.sender,_to,_coinID);\n\n\t\t\t\n\t\t}\n\t\t\n\t\t/**\n\t\t * @dev function listLove will list the entire coins and their owners\n\t\t * \n\t\t */\n\t\tfunction listLove() public constant returns(uint256[],address[])  {\n\t\t    \n\t\t\t    // this function will throw if the msg.sender is not the contractr deployer\n\t\t\t    // this constant function is restricted to the owner only because the blockchain reading time may be high\n\t\t\t    // since it recieves largest amont of elemsnts upto 50000 this may result time lag so to avoid un necessory \n\t\t\t    // call to this function\n\t\t\t\trequire(\n\t\t\t\t    owner == msg.sender\n\t\t\t\t    );\n\t\t\t\t// decalring length with the total supply to inititliase the array of coins and owners with the length \n\t\t\t\tuint256 length = totalSupply+1;\n\t\t\t\tuint256[] memory coinIDs = new uint256[](length);\n\t\t\t\taddress[] memory owners = new address[](length);\n\t\t\t\t\n\t\t\t\t\n\t\t\t\t//looping the coinIDs and check wether the id is availble to sell , then it added to the selling list for diplay\n\t\t\t\tfor(uint256 i = 1; i<length; i++)  {\n\t\t\t\t\t\tLove memory lovewall;\n\t\t\t\t\t\tlovewall = lovecoin[i];\n\t\t\t\t\t\tcoinIDs[i]=lovewall.coinID; \n\t\t\t\t\t\towners[i]=lovewall.coinOwner;\n\t\t\t\t}\n\t\t\t\t return (coinIDs,owners);\n\t\t}\n\t\t\n\t\t/**\n\t\t * @dev function giftLove is gift the coin to other valid ethereum addresses. \n\t\t * this will change the ownership to the given addresses\n\t\t * and allow to change the encoded data in the coinOwner\n\t\t * throws when invalid coin id or sender is not the owner of coin\n\t\t */ \n\t\tfunction giftLove(uint256 _coinID, address _to, bytes32 _data) public returns (bool) { \n                //throws if the coin is invalid or the sender is not the owner of the coin.\n\t\t\t\trequire(\n\t\t\t\t\t_to != 0 &&\n\t\t\t\t\tlovecoin[_coinID].coinOwner == msg.sender &&\n\t\t\t\t\t_coinID > 0 &&\n\t\t\t\t\ttotalSupply >= _coinID\n\t\t\t\t\t\t); \n                //first operation done by giftLove is to change the ownership of the coin from current Owner to new owner ie: address of _to \n\t\t\t\t\tchangeOwner(_to, _coinID);\n\t\t\t\t\t\n\t\t\t\t\tlovecoin[_coinID].data = _data;\n\t\t\t\t\t\n\t\t\t\t\treturn true;\n\n\t\t}\n\t\t\n\t\tfunction allowRedeem(address _owner) public onlyOwner returns(bool) {\n\t\t    \n\t\t    require(\n\t\t        _owner != 0 &&\n\t\t        msg.sender == owner &&\n\t\t        redeem[_owner] == false\n\t\t        );\n\t\t        \n\t\t        redeem[_owner] = true;\n\t\t        return true;\n\t\t       \n\t\t}\n\t\t\n\t\t/**\n\t\t * @dev function readytoSell change the sell status of coin. it will accept the coin Id and amount for sale\n\t\t * and then added to the marketplace\n\t\t * throws when ivalid coin id or msg.sender is not the owner\n\t\t */ \n\t\tfunction readytoSell(uint256 _coinID,uint256 _amount) public returns(bool)   {\n\t\t\trequire(\n\t\t\t        _coinID > 0 &&\n\t\t\t\t\ttotalSupply >= _coinID &&\n\t\t\t\t\tlovecoin[_coinID].coinOwner == msg.sender\n\t\t\t\t\t);\n\t\t\t\t\t\n\t\t\t\t\tlovecoin[_coinID].sellAvailability = true;\n\t\t\t\t\tlovecoin[_coinID].sellPrice = _amount;\n\t\t\t\t\tsaleCount++;\n\t\t\t\t\t\n\t\t\t\t\n\t\t\t\t\treturn true;\n\t\t}\n\t    \n\t    /**\n\t     * @dev cancelSale will cancel the sale of a coin\n\t     * throws when coin id is invalid or invalid address\n\t     */ \n\t\tfunction cancelSale(uint256 _coinID) public returns(bool)   {\n\t\t    \n\t\t    require(\n\t\t        _coinID > 0 &&\n\t\t\t    totalSupply >= _coinID &&\n\t\t        lovecoin[_coinID].coinOwner == msg.sender &&\n\t\t        lovecoin[_coinID].sellAvailability == true \n\t\t        );  \n\t\t        \n\t\t        lovecoin[_coinID].sellAvailability = false;\n\t\t        lovecoin[_coinID].sellPrice = RATE;\n\t\t        saleCount--;\n\t\t        \n\t\t        return true;\n\t\t}\n\t\t\n\t\t\n\t\t/**\n\t\t * @dev saleList function returns the list of coins which are about to sell.\n\t\t * which includes coinId, owner and amount to buy the coinId\n\t\t */\n\t\tfunction saleList() public constant returns(uint256[],address[],uint256[])    {\n\t\t    \n\t\t    uint256 length = totalSupply+1;\n\t\t\tuint256 index=0;\n\t\t\tuint256[] memory coinIDs = new uint256[](saleCount);\n\t\t\taddress[] memory owners = new address[](saleCount);\n\t\t\tuint256[] memory sellPrices = new uint256[](saleCount);\n\t\t\t\t\n\t\t\t\t\n\t\t\t\t\n\t\t\t\tfor(uint256 i = 1; i<length; i++)  {\n\t\t\t\t    if(lovecoin[i].sellAvailability==true)  {\n\t\t\t\t\t\tLove memory lovewall;\n\t\t\t\t\t\tlovewall = lovecoin[i];\n\t\t\t\t\t\tcoinIDs[index]=lovewall.coinID; \n\t\t\t\t\t\towners[index]=lovewall.coinOwner;\n\t\t\t\t\t\tsellPrices[index] = lovewall.sellPrice;\n\t\t\t            index++;\t\n\t\t\t\t        }\n\t\t\t\t    }\n\t\t\t\t return (coinIDs,owners,sellPrices);\n\t\t}\n\n\t\t\n\t\tfunction bidcoin(uint256 _coinID, uint256 _amount) public returns(bool) {\n\t\t    \n\t\t    require(\n\t\t\t\t_coinID > 0 &&\n\t\t\t\ttotalSupply >= _coinID &&\n\t\t\t\t_amount > 0 &&\n\t\t\t\t_amount >= bid[_coinID].bidAmount &&\n\t\t\t\tbid[_coinID].ApprovalStatus == false\n\t\t\t\t);\n\t\t\t\t\n\t\t\t\tBid memory newBid;\n\t\t\t\ttotalBids++;\n\t\t\t\tnewBid.coinID = _coinID;\n\t\t\t\tnewBid.bidBy = msg.sender;\n\t\t\t\tnewBid.bidAmount = _amount;\n\t\t\t\tbid[_coinID] = newBid;\n\t\t}\n\t\t\n\t\t\n\t\tfunction showBid(uint256 _coinID) public constant returns(uint256,address) {\n                require(\n                    _coinID > 0 &&\n\t\t\t\t    totalSupply >= _coinID\n                    );\n\t\t        return(bid[_coinID].bidAmount,bid[_coinID].bidBy);\n\t\t\t\t\n\t\t}\n\n\t\tfunction approveBid(uint256 _coinID) public returns (bool) {\n\t\t\t\t\n\t\t\t\trequire(\n\t\t\t\t        _coinID > 0 &&\n\t\t\t\t        totalSupply >= _coinID &&\n\t\t\t\t\t\tlovecoin[_coinID].coinOwner == msg.sender &&\n\t\t\t\t\t\tbid[_coinID].bidAmount != 0 \n\t\t\t\t\t\t\n\t\t\t\t\t\t);        \n\t\t\t\t\t\t\n\t\t\t\t\t\tbid[_coinID].ApprovalStatus=true;\n\t\t\t\t\t\treturn true; \n\t\t}\n\t\t\n\t\tfunction postSale(uint256 _coinID) public payable returns(bool) {\n\t        require(lovecoin[_coinID].sellAvailability == true &&\n\t                msg.value == lovecoin[_coinID].sellPrice\n\t                \n\t        );\n\t        address _currentOwner =  lovecoin[_coinID].coinOwner;\n\t \n    \t   lovecoin[_coinID].coinOwner = msg.sender; \n\t\t   // update the coin balance of sender as decrement by one\n\t\t\ttotalOwned[_currentOwner] -= 1;\n\t\t\t// update the coin balance of reciepient ad decerement by one\n\t\t\ttotalOwned[msg.sender] += 1;\n\t\t\t// call the event to store the change ownership details in the block\n\t        lovecoin[_coinID].sellPrice=RATE;\n\t        lovecoin[_coinID].sellAvailability= false;\n\t        saleCount--;\n\t        LoveTransfer(_currentOwner,msg.sender,_coinID);\n\t        return true;\n\t\t}\n\t\t\n\t\tfunction claimLove(uint256 _coinID) public payable returns(bool)  {\n\t\t\t\t\n\t\t\t\trequire(\n\t\t\t\t        msg.value == bid[_coinID].bidAmount &&\n\t\t\t\t\t\tbid[_coinID].bidBy == msg.sender &&\n\t\t\t\t\t\tbid[_coinID].ApprovalStatus == true \n\t\t\t\t\t\t);\n\t\t\t\t\t\t\n\t\t\t\t\t\taddress currentOwner = lovecoin[_coinID].coinOwner;\n\t\t\t\t\t    \n\t\t\t\t\t\tlovecoin[_coinID].coinOwner = msg.sender; \n\t\t\t\t\t\ttotalOwned[currentOwner] -= 1;\n\t\t\t\t\t\ttotalOwned[msg.sender] += 1;\n\t\t\t\t\t\tdelete bid[_coinID];\n\t\t\t\t\t\tcurrentOwner.transfer(msg.value);\n\t\t\t\t\t\tLoveTransfer(currentOwner,msg.sender,_coinID);\n\t\t\t\t\t\treturn true;\n\t\t\t\t\t\t\n\t\t}\n\t\t\n\t\t\n\t\tfunction lovesbyOwner() public constant returns(uint256[])  {\n\t\t\t\t\n\t\t\t\tuint256[] memory _coinID = new uint256[](totalOwned[msg.sender]);\n\t\t\t\tuint8 _index = 0;\n\t\t\t\tfor(uint256 i=1; i<(totalSupply+1);i++) {\n\t\t\n\t\t\t\t\t\tif(lovecoin[i].coinOwner == msg.sender) {\n\t\t\t\t\n\t\t\t\t\t\t\t\t_coinID[_index] = lovecoin[i].coinID;\n\t\t\t\t\t\t\t\t_index++;\n\t\t\t\t\t\t}\n\t\t\t\t}  \n\t\t\t\treturn (_coinID);\n\t\t} \n\t    \n\t   \n\t\tfunction name() public pure returns(string) {\n\t\t\t\t\t\treturn NAME;\n\t\t}\n\n\t\tfunction symbol() public pure returns(string) {\n\t\t\t\treturn SYMBOL;\n\t\t}\n\n\t\tfunction totalSupply() public constant returns(uint256) {\n\t\t\t\treturn totalSupply;\n\t\t}\n\n\t\tfunction balanceOf(address _owner) public constant returns(uint)  {\n\t\t\t\treturn totalOwned[_owner];\n\t\t}\n\t\tfunction totalredeemcount() public constant returns(uint256)  {\n\t\t\t\treturn redeemCount;\n\t\t}\n\n\t\tfunction isSoldout() public constant returns (bool) {\n\n\t\t\treturn (totalSupply == 50000);\n\n\t\t}\n\n\t\n\n\t\tevent LoveTransfer(address indexed _owner, address _to, uint256 _coinID);\n\t\tevent CreateLove(address indexed _owner, uint256 _coinID);\n\t\tevent Bidding (address indexed _from,uint256 _bidID, uint256 _coinID, uint256 _bidAmount);\n\t\tevent ApproveBid(address indexed _from, uint256 _bidID, uint256 _coinID, uint256 _bidAmount);\n\t\tevent Claim(address indexed _from,address _to,uint256 _bidID, uint256 _coinID, uint256 _bidAmount);\n\t\t\n}\n\n\n\n",
  "sourcePath": "/home/blockchainexpert/contracts/Lovecoin/contracts/Lovecoincore.sol",
  "compiler": {
    "name": "solc",
    "version": "0.4.18+commit.9cf6e910.Emscripten.clang"
  },
  "schemaVersion": "1.0.1",
  "updatedAt": "2018-03-02T10:04:31.563Z"
}